:020000040800F2
:1000000000100020914A0008E14A0008E14A000877
:1000100000000000000000000000000000000000E0
:10002000000000000000000000000000E14A00089D
:100030000000000000000000E14A00083D06000842
:10004000E14A000800000000E14A0008E14A000817
:10005000E14A0008E14A0008E14A0008E14A0008D4
:1000600000000000850E0008A90E0008E90E000837
:10007000E14A0008E14A0008EF0E00080000000015
:10008000F50E00080000000000000000FB0E000854
:1000900000000000010F0008070F0008E14A0008F7
:1000A00000000000E14A0008000000000D0F0008F9
:1000B0000000000000000000000000000000000040
:1000C00010B5064C2378002B07D1054B002B02D02E
:1000D000044800E000BF0123237010BD6C00002025
:1000E00000000000204C0008044B10B5002B03D08A
:1000F0000349044800E000BF10BDC04600000000F6
:1001000070000020204C0008002243088B4274D36A
:1001100003098B425FD3030A8B4244D3030B8B4208
:1001200028D3030C8B420DD3FF22090212BA030C11
:100130008B4202D31212090265D0030B8B4219D3F2
:1001400000E0090AC30B8B4201D3CB03C01A524112
:10015000830B8B4201D38B03C01A5241430B8B425A
:1001600001D34B03C01A5241030B8B4201D30B0343
:10017000C01A5241C30A8B4201D3CB02C01A52416A
:10018000830A8B4201D38B02C01A5241430A8B422D
:1001900001D34B02C01A5241030A8B4201D30B0216
:1001A000C01A5241CDD2C3098B4201D3CB01C01A30
:1001B000524183098B4201D38B01C01A524143093A
:1001C0008B4201D34B01C01A524103098B4201D328
:1001D0000B01C01A5241C3088B4201D3CB00C01A95
:1001E000524183088B4201D38B00C01A524143080D
:1001F0008B4201D34B00C01A5241411A00D2014632
:10020000524110467047FFE701B5002000F006F8A4
:1002100002BDC0460029F7D076E770477047C04658
:1002200080B582B000AF0200FB1D1A70FB1D1B7869
:100230005BB21F221A40044B012191400A001A6050
:10024000C046BD4602B080BD00E100E080B582B08E
:1002500000AF78600A00FB1C1A70FB1C1B780F2291
:100260001340DAB27B680F210A4012015968F0206E
:1002700081430A435A607B681800BD4602B080BDC6
:1002800080B582B000AF78600A00FB1C1A70FB1CBE
:100290001B7807221340DAB27B6807210A4012025A
:1002A0005968044801400A435A607B681800BD46FB
:1002B00002B080BDFFF8FFFF80B582B000AF78606C
:1002C0000A00FB1C1A70FB1C1B7803221340DAB2D5
:1002D0007B6803210A405968032081430A435A601E
:1002E0007B681800BD4602B080BD000080B582B0BA
:1002F00000AF78600A00FB1C1A70FB1C1B780122FF
:100300001340DAB27B6801210A401204596804489C
:1003100001400A435A607B681800BD4602B080BDA8
:10032000FFFFFEFF80B582B000AF78600A00FB1CC3
:100330001A70FB1C1B780F221340DAB27B680F2166
:100340000A4092045968044801400A435A607B6895
:100350001800BD4602B080BDFFFFC3FF80B582B06C
:1003600000AF78607B681A68802149020A431A60EE
:100370007B681800BD4602B080BD80B582B000AF7A
:1003800078607B681B689B03DB0FDBB20122534064
:10039000DBB2002B00D0F4E77B681800BD4602B04A
:1003A00080BD80B582B000AF78607B681A6880211C
:1003B00049040A431A607B681800BD4602B080BD3C
:1003C00080B582B000AF78607B681B689B01DB0F53
:1003D000DBB201225340DBB2002B00D0F4E77B6894
:1003E0001800BD4602B080BD80B584B000AF786013
:1003F0007B685B685B055B0FDAB20F217B181A70B4
:100400007B181B78002B16D00F23FB181B78042BAE
:100410000FD00F23FB181B78052B08D00F23FB18D8
:100420001B78062B01D1064B06E0064B04E0064B79
:1004300002E0064B00E0064B1800BD4604B080BD4C
:10044000808D5B00C0C62D00001BB70000366E011A
:10045000006CDC0280B582B000AF786039607B68E8
:100460001800FFF7C1FF03001800BD4602B080BDB1
:1004700080B582B000AF786039603B681800BD4637
:1004800002B080BD80B582B000AF786039603B6853
:100490001A687B681B689A4201D23B6800E07B685F
:1004A0001800BD4602B080BD80B582B000AF786054
:1004B00039607B683A681100180001F025FEC046DB
:1004C000BD4602B080BD80B582B000AF78603960B3
:1004D0007B683A681100180001F035FEC046BD4641
:1004E00002B080BD90B587B000AF78607B687B615B
:1004F0007B69180001F077FE0300FB607B69180040
:1005000001F08EFE0300BB600823FA180C23FB18D1
:100510001100180001F094FE031E11D00C243B19A9
:10052000180001F0ACFE03003B613B691B681B68CF
:100530003A69100098473B19180001F092FEE3E772
:10054000C046BD4607B090BD80B582B000AF7860B0
:1005500039607B683A685A60C046BD4602B080BDCB
:1005600080B582B000AF78607B6800229A60C04698
:10057000BD4602B080BD80B582B000AF78600A0091
:10058000FB1C1A70FB1C1B7801221340DAB27B683B
:1005900001210A4092001968042081430A431A602D
:1005A000C046BD4602B080BD80B582B000AF786065
:1005B0007B681A6802210A431A60C046BD4602B031
:1005C00080BD80B582B000AF78607B681A68012179
:1005D0000A431A60C046BD4602B080BD80B582B0F5
:1005E00000AF78607B6800221A607B6800225A6046
:1005F0007B681800BD4602B080BD80B582B000AFF8
:1006000078607B681800FFF7E9FF7B681800BD463B
:1006100002B080BD80B582B000AF78607B68180002
:10062000FFF7EBFF01F036FE0300180001F03AFE81
:100630007B681800BD4602B080BD000080B500AFE9
:10064000034B1800FFF74EFFC046BD4680BDC046B5
:100650008800002080B582B000AF78607B680022FF
:100660001A607B6800225A607B681800BD4602B0A1
:1006700080BD000080B582B000AF78607B68043335
:100680001800FFF7E7FF044A7B681A607B681800D0
:10069000BD4602B080BDC046B04E000880B582B0F5
:1006A00000AF78607B681800FFF7E4FF054A7B68BD
:1006B0001A607B6800221A737B681800BD4602B07E
:1006C00080BDC046A44E000880B582B000AF7860FF
:1006D0007B681B7B002B08D07B6800221A737A682A
:1006E000044B11001800FFF7EEFEC046BD4602B0F5
:1006F00080BDC0468800002080B582B000AF786021
:100700007B681B7B01225340DBB2002B08D07B6847
:1007100001221A737A68044B11001800FFF7C4FE17
:10072000C046BD4602B080BD8800002080B582B0C2
:1007300000AF7860396001223B689A4013001A00CC
:100740007B689A61C046BD4602B080BD80B582B06C
:1007500000AF786039603B68103301229A40130083
:100760001A007B689A61C046BD4602B080BD80B564
:1007700082B000AF786039607B681B6901213A68FC
:1007800091400A0013405A1E9341DBB21800BD4647
:1007900002B080BD80B584B000AFF860B9607A6007
:1007A000FB68BA681A60FB687A685A60FB681800D0
:1007B000BD4604B080BD80B582B000AF78607B6874
:1007C0001A687B685B6819001000FFF7AFFFC0462E
:1007D000BD4602B080BD80B582B000AF78607B6856
:1007E0001A687B685B6819001000FFF7AFFFC0460E
:1007F000BD4602B080BD80B582B000AF78607B6836
:100800001A687B685B6819001000FFF7B0FF0300EF
:100810001800BD4602B080BD80B582B000AF7860E0
:100820000A00FB1C1A70FB1C1B78002B04D07B6891
:100830001800FFF7C0FF03E07B681800FFF7CBFF4D
:10084000FB1C1B781800BD4602B080BD80B582B08D
:1008500000AF78607B681800FFF7CDFF0300180039
:10086000BD4602B080BD000080B582B000AF7860A8
:100870000A00FB1C1A70FB1C1B7801221340DAB221
:100880007B6801210A4052021968044801400A436A
:100890001A607B681800BD4602B080BDFFFDFFFFF7
:1008A00080B582B000AF78600A00FB1C1A70FB1C98
:1008B0001B7801221340DAB27B6801210A4012033F
:1008C0001968044801400A431A607B681800BD4655
:1008D00002B080BDFFEFFFFF80B582B000AF78604F
:1008E0000A00FB1C1A70FB1C1B7803221340DAB2AF
:1008F0007B6803210A4012035968044801400A43F7
:100900005A607B681800BD4602B080BDFFCFFFFF74
:1009100080B582B000AF78607B681A6801210A4315
:100920001A607B681800BD4602B080BD80B582B0F9
:1009300000AF78607B681A6804210A431A607B68FC
:100940001800BD4602B080BD80B582B000AF7860AF
:100950007B681A6808210A431A607B681800BD4644
:1009600002B080BD80B582B000AF78607B689A68C5
:1009700080210A439A607B681800BD4602B080BDA2
:1009800080B582B000AF78607B689A6840210A43E6
:100990009A607B681800BD4602B080BD80B582B009
:1009A00000AF78607B681A688021C9000A431A602A
:1009B0007B681800BD4602B080BD000080B582B0E3
:1009C00000AF78607B681A6803490A401A607B6848
:1009D0001800BD4602B080BDFFFBFFFF80B582B0AE
:1009E00000AF78600A00FB1C1A70FB1C1B78002B00
:1009F00004D07B681800FFF7D1FF03E07B68180084
:100A0000FFF7DCFF7B681800BD4602B080BD80B5F3
:100A100082B000AF78600A00FB1C1A707B68FA1C79
:100A2000127801210A4012011968102081430A43FB
:100A30001A607B681800BD4602B080BD80B582B0E8
:100A400000AF78607B68DB69DB06DB0FDBB2180088
:100A5000BD4602B080BD80B582B000AF78607B68D3
:100A60002033012252421A607B681800BD4602B052
:100A700080BD80B582B000AF78607B6824331800F9
:100A8000BD4602B080BD80B582B000AF78607B68A3
:100A900028331800BD4602B080BD000090B587B075
:100AA00000AFF8607A600B243B190A1C1A7001F041
:100AB0001DFC02007B6819001000FFF7CBFC03004F
:100AC0007B613B191B78072B5CD89A00304BD318FD
:100AD0001B689F467A69962399011000FFF714FB63
:100AE00003001A00FB68DA604CE07A69E12399019F
:100AF0001000FFF709FB03001A00FB68DA6041E011
:100B00007A699623D9011000FFF7FEFA03001A0054
:100B1000FB68DA6036E07A69E123D9011000FFF75B
:100B2000F3FA03001A00FB68DA602BE07A69962377
:100B300019021000FFF7E8FA03001A00FB68DA60F8
:100B400020E07A69E12319021000FFF7DDFA0300C3
:100B50001A00FB68DA6015E07A69962359021000E2
:100B6000FFF7D2FA03001A00FB68DA600AE07A693C
:100B7000E12359021000FFF7C7FA03001A00FB68CF
:100B8000DA60C046FB681800BD4607B090BDC0469D
:100B9000384E000880B582B000AF78607B681800DE
:100BA000BD4602B080BD90B583B000AF78603960BB
:100BB0003B68DBB2013B9B0001229A4013001C0002
:100BC0007B6804331800FFF7E5FF03001C60C04694
:100BD000BD4603B090BD80B582B000AF78607B6841
:100BE0001800BD4602B080BD80B582B000AF78600D
:100BF00039607B681800FFF7EEFF03001B683A6856
:100C0000D2B2013A92000132012191400A00134010
:100C10005A1E9341DBB21800BD4602B080BD80B5BC
:100C200082B000AF78607B681A6801210A431A60BD
:100C30007B681B68DB07DB0FDBB201225340DBB2B2
:100C4000002B00D0F4E77B681800BD4602B080BDE1
:100C500080B582B000AF78607B681A6801218A4352
:100C60001A607B681800BD4602B080BD80B582B0B6
:100C700000AF78607B681A6880210A431A607B683D
:100C80001800BD4602B080BD80B582B000AF78606C
:100C90007B681A6820210A431A607B681800BD46E9
:100CA00002B080BD80B582B000AF786039607B68EB
:100CB0003A68DA607B681800BD4602B080BD80B536
:100CC00082B000AF786039607B683A689A607B6870
:100CD0001800BD4602B080BD80B582B000AF78601C
:100CE0000A00BB1C1A80BB1C1A887B685A607B6890
:100CF0001800BD4602B080BD80B582B000AF7860FC
:100D00000A00FB1C1A70FB1C1B7801221340DAB28C
:100D10007B6801210A4012011968102081430A43AF
:100D20001A607B681800BD4602B080BD80B582B0F5
:100D300000AF78600A00FB1C1A70FB1C1B780322B2
:100D40001340DAB27B6803210A4092021968044812
:100D500001400A431A607B681800BD4602B080BD9E
:100D6000FFF3FFFF80B582B000AF78600A00FB1C84
:100D70001A70FB1C1B7803221340DAB27B68032134
:100D80000A4012021968044801400A431A607B684D
:100D90001800BD4602B080BDFFFCFFFF80B582B0E9
:100DA00000AF78607B681A6802210A431A607B688A
:100DB0001800BD4602B080BD80B582B000AF78603B
:100DC0007B685B689BB21800BD4602B080BD80B5F1
:100DD00082B000AF78600A00FB1C1A707B680022AA
:100DE0001A607B68FA1C12781A717B681800BD467D
:100DF00002B080BD80B582B000AF7860054B1B6843
:100E00007A68127952B210009847C046BD4602B0C7
:100E100080BDC0460000002080B584B000AF78607F
:100E200039607B681B68FB60FB68002B0BD0FB689C
:100E30005B68002B03D0FB685B68FB60F7E7FB682F
:100E40003A685A6002E07B683A681A60C046BD465C
:100E500004B080BD80B584B000AF78607B681B684B
:100E6000FB60FB68002B09D0FB681B681B68FA68F5
:100E700010009847FB685B68FB60F2E7C046BD4620
:100E800004B080BD80B500AF064B1800FFF7E2FF4D
:100E900001F034FA030001211800FFF784FEC04678
:100EA000BD4680BD9800002080B500AF0C4B1800F7
:100EB000FFF7D0FF01F022FA030002211800FFF72C
:100EC00072FE084B1800FFF7C5FF01F017FA030088
:100ED00003211800FFF767FEC046BD4680BDC0462F
:100EE000A0000020A800002080B500AFFEE780B57C
:100EF00000AFFEE780B500AFFEE780B500AFFEE7CC
:100F000080B500AFFEE780B500AFFEE780B500AF6B
:100F1000064B1800FFF79EFF01F0FEF903001800D2
:100F2000FFF799FDC046BD4680BDC0469000002039
:100F300080B500AF01F0F8F9C046BD4680BD80B570
:100F400082B000AF78607B68180000F005F80300FD
:100F50001800BD4602B080BD80B582B000AF786099
:100F60007B68180000F005F803001800BD4602B0C9
:100F700080BD80B582B000AF78607B681C331800FC
:100F800000F005F803001800BD4602B080BD80B532
:100F900082B000AF78607B681B681800BD4602B065
:100FA00080BD80B582B000AF78607B681800FFF725
:100FB000C6FF0300180000F005F803001800BD4646
:100FC00002B080BD80B582B000AF78607B68180049
:100FD000BD4602B080BD80B582B000AF78607B684E
:100FE000180000F005F803001800BD4602B080BDEF
:100FF00080B582B000AF78607B68180000F005F81B
:1010000003001800BD4602B080BD80B582B000AFBD
:1010100078607B681833180000F005F803001800AA
:10102000BD4602B080BD80B582B000AF78607B68FD
:101030001B681800BD4602B080BD80B582B000AF0D
:1010400078607B681800FFF7C6FF03001800FFF701
:10105000B9FF03001800BD4602B080BD80B582B064
:1010600000AF78607B68180000F005F803001800F6
:10107000BD4602B080BD80B582B000AF78607B68AD
:10108000180000F005F803001800BD4602B080BD4E
:1010900080B582B000AF78607B681433180000F030
:1010A00005F803001800BD4602B080BD80B582B0CF
:1010B00000AF78607B681B681800BD4602B080BD39
:1010C00080B582B000AF78607B681800FFF7C6FF7C
:1010D00003001800FFF776FF03001800BD4602B0BA
:1010E00080BD80B582B000AF78607B68180000F0EA
:1010F00005F803001800BD4602B080BD80B582B07F
:1011000000AF78607B68180000F005F80300180055
:10111000BD4602B080BD80B582B000AF78607B680C
:101120001033180000F005F803001800BD4602B0A7
:1011300080BD80B582B000AF78607B681B68180006
:10114000BD4602B080BD80B582B000AF78607B68DC
:101150001800FFF7C6FF03001800FFF733FF030076
:101160001800BD4602B080BD80B582B000AF786087
:101170007B68180000F005F803001800BD4602B0B7
:1011800080BD80B582B000AF78607B68180000F049
:1011900005F803001800BD4602B080BD80B582B0DE
:1011A00000AF78607B680C33180000F005F803008E
:1011B0001800BD4602B080BD80B582B000AF786037
:1011C0007B681B681800BD4602B080BD80B582B048
:1011D00000AF78607B681800FFF7C6FF03001800B7
:1011E000FFF7F0FE03001800BD4602B080BD80B5D9
:1011F00082B000AF78607B68180000F005F803004B
:101200001800BD4602B080BD80B582B000AF7860E6
:101210007B68180000F005F803001800BD4602B016
:1012200080BD80B582B000AF78607B68083318005D
:1012300000F005F803001800BD4602B080BD80B57F
:1012400082B000AF78607B681B681800BD4602B0B2
:1012500080BD80B582B000AF78607B681800FFF772
:10126000C6FF03001800FFF7ADFE03001800BD46DF
:1012700002B080BD80B582B000AF78607B68180096
:1012800000F005F803001800BD4602B080BD80B52F
:1012900082B000AF78607B68180000F005F80300AA
:1012A0001800BD4602B080BD80B582B000AF786046
:1012B0007B680433180000F005F803001800BD46F1
:1012C00002B080BD80B582B000AF78607B681B68DB
:1012D0001800BD4602B080BD80B582B000AF786016
:1012E0007B681800FFF7C6FF03001800FFF76AFECF
:1012F00003001800BD4602B080BD80B582B000AFCB
:1013000078607B68180000F005F803001800BD46FF
:1013100002B080BD80B582B000AF78607B681800F5
:1013200000F005F803001800BD4602B080BD80B58E
:1013300082B000AF78607B68180000F005F8030009
:101340001800BD4602B080BD80B582B000AF7860A5
:101350007B681B681800BD4602B080BD80B582B0B6
:1013600000AF78607B681800FFF7C7FF0300180024
:10137000FFF728FE03001800BD4602B080BD80B50F
:1013800082B000AF78607B68180000F005F80300B9
:101390001800BD4602B080BD80B582B000AF786055
:1013A0007B68180000F005F803001800BD4602B085
:1013B00080BD80B582B000AF78607B6824331800B0
:1013C000FFF7E5FD03001800BD4602B080BD80B503
:1013D00082B000AF78607B681800FFF7D0FF030091
:1013E0001800FFF7EFFD03001800BD4602B080BDF6
:1013F00080B582B000AF78607B68180000F005F817
:1014000003001800BD4602B080BD80B582B000AFB9
:1014100078607B68180000F005F803001800BD46EE
:1014200002B080BD80B582B000AF78607B682033A9
:101430001800FFF7F8FD03001800BD4602B080BD9C
:1014400080B582B000AF78607B681800FFF7D0FFEE
:1014500003001800FFF7B6FD03001800BD4602B0F8
:1014600080BD80B582B000AF78607B68180000F066
:1014700005F803001800BD4602B080BD80B582B0FB
:1014800000AF78607B68180000F005F803001800D2
:10149000BD4602B080BD80B582B000AF78607B6889
:1014A0001C331800FFF702FE03001800BD4602B00F
:1014B00080BD80B582B000AF78607B681800FFF710
:1014C000D0FF03001800FFF77DFD03001800BD46A4
:1014D00002B080BD80B582B000AF78607B68180034
:1014E00000F005F803001800BD4602B080BD80B5CD
:1014F00082B000AF78607B68180000F005F8030048
:101500001800BD4602B080BD80B582B000AF7860E3
:101510007B6818331800FFF70CFE03001800BD4667
:1015200002B080BD80B582B000AF78607B681800E3
:10153000FFF7D0FF03001800FFF744FD0300180079
:10154000BD4602B080BD80B582B000AF78607B68D8
:10155000180000F005F803001800BD4602B080BD79
:1015600080B582B000AF78607B68180000F005F8A5
:1015700003001800BD4602B080BD80B582B000AF48
:1015800078607B6814331800FFF716FE030018001C
:10159000BD4602B080BD80B582B000AF78607B6888
:1015A0001800FFF7D0FF03001800FFF70BFD030042
:1015B0001800BD4602B080BD80B582B000AF786033
:1015C0007B68180000F005F803001800BD4602B063
:1015D00080BD80B582B000AF78607B68180000F0F5
:1015E00005F803001800BD4602B080BD80B582B08A
:1015F00000AF78607B6810331800FFF720FE03000F
:101600001800BD4602B080BD80B582B000AF7860E2
:101610007B681800FFF7D0FF03001800FFF7D2FC2B
:1016200003001800BD4602B080BD80B582B000AF97
:1016300078607B68180000F005F803001800BD46CC
:1016400002B080BD80B582B000AF78607B681800C2
:1016500000F005F803001800BD4602B080BD80B55B
:1016600082B000AF78607B680C331800FFF72AFE69
:1016700003001800BD4602B080BD80B582B000AF47
:1016800078607B681800FFF7D0FF03001800FFF7B1
:1016900099FC03001800BD4602B080BD80B582B041
:1016A00000AF78607B68180000F005F803001800B0
:1016B000BD4602B080BD80B582B000AF78607B6867
:1016C000180000F005F803001800BD4602B080BD08
:1016D00080B582B000AF78607B6808331800FFF7F0
:1016E00033FE03001800BD4602B080BD80B582B055
:1016F00000AF78607B681800FFF7D0FF0300180088
:10170000FFF760FC03001800BD4602B080BD80B545
:1017100082B000AF78607B68180000F005F8030025
:101720001800BD4602B080BD80B582B000AF7860C1
:101730007B68180000F005F803001800BD4602B0F1
:1017400080BD80B582B000AF78607B68043318003C
:1017500000F005F803001800BD4602B080BD80B55A
:1017600082B000AF78607B681B681800BD4602B08D
:1017700080BD80B582B000AF78607B681800FFF74D
:10178000C6FF03001800FFF71DFC03001800BD464C
:1017900002B080BD80B582B000AF78607B68180071
:1017A00000F005F803001800BD4602B080BD80B50A
:1017B00082B000AF78607B68180000F005F8030085
:1017C0001800BD4602B080BD80B582B000AF786021
:1017D0007B68180000F005F803001800BD4602B051
:1017E00080BD80B582B000AF78607B681B68180050
:1017F000BD4602B080BD80B582B000AF78607B6826
:101800001800FFF7C7FF03001800FFF7DBFB03001A
:101810001800BD4602B080BD80B500AF0F4B1B68FD
:10182000012213400AD101F0CEF801000C4B022234
:101830001800FEF7AFFF094B01221A6000F056FDB9
:101840000300180001F0C6F8054B1B68180001F0F2
:10185000CFF8034B1800BD4680BDC046C80000202D
:10186000C000002080B500AF0F4B1B680122134061
:101870000AD101F0A8F801000C4B03221800FEF772
:1018800089FF094B01221A6000F030FD03001800A7
:1018900001F0A0F8054B1B68180001F0BBF8034BE2
:1018A0001800BD4680BDC046D4000020CC000020FA
:1018B00080B500AF0F4B1B68012213400AD101F025
:1018C00082F801000C4B01221800FEF763FF094B60
:1018D00001221A6000F00AFD0300180001F07AF8F6
:1018E000054B1B68180001F0A7F8034B1800BD4614
:1018F00080BDC046E0000020D800002080B500AFC9
:1019000002231800BD4680BD80B500AF014B180012
:10191000BD4680BD9000002080B582B000AF7860E9
:101920007B681800BD4602B080BD80B582B000AFB4
:1019300078607B681800FFF7EFFF0300180001F0E4
:1019400004F901007A6880235B00D358CB18180093
:10195000BD4602B080BD000080B500AF014B18004D
:10196000BD4680BDA0000020F0B5C64600B590B0D1
:1019700006AF01F023F809237B620A233B620723A9
:10198000FB610423BB6104237B61634B1B68012261
:10199000134028D1FFF740FFF860FFF763FFB860FE
:1019A000FFF786FF786000F0B7FC040000F0A6FCAB
:1019B000050001F04FF8060001F054F88046FFF7EB
:1019C0009DFF030055480593062304934346039364
:1019D0000296019500947B68BA68F96801F05DF899
:1019E0004D4B01221A6000F081FC03003B613B6912
:1019F000180001F08FF8494A8C235B00D358180077
:101A0000FEF7A2FF03001800FEF790FF0300180086
:101A1000FEF7A8FF03001800FEF7B2FFFFF774FF00
:101A200003001800FFF7E6F93B69180001F080F8A1
:101A30003A4A8E235B00D35801211800FFF75CF966
:101A40000400364B1800FFF770FF03001900200058
:101A5000FFF728F90400314A8C235B00D3581800A3
:101A6000FFF711F8030019002000FFF728F9030021
:101A70001800FFF7FBF8030000211800FFF756F9E4
:101A8000030000211800FFF76DF903001800FFF7AD
:101A900085F9FFF761FF03001800FFF7ABF91F4A54
:101AA00090235B00D35800211800FFF725F90400AC
:101AB0001A4B1800FFF739FF030019002000FFF749
:101AC000F1F80400154A8C235B00D3581800FEF788
:101AD000D0FF030019002000FFF7F1F80300FF21F9
:101AE0001800FFF7F9F803001800FFF7BFF803002C
:101AF00000211800FFF71AF9030000211800FFF772
:101B000031F903001800FFF7BFF8044B1800BD4679
:101B10000AB004BC9046F0BD10020020E400002092
:101B2000B0B586B002AF02003B1D1980FB1D1A70D4
:101B3000FFF71AFF0300FB60264B1B6801221340CE
:101B400010D1FFF7E1FE0500FFF706FF0400FA6879
:101B5000FB1D1978204800942B0001F003F81D4B61
:101B600001221A603B1D1B781F229343DBB2002B1E
:101B70001CD03B1D1B781F229343DBB2202B13D0BC
:101B80003B1D1B781F229343DBB2402B0AD03B1D29
:101B90001B781F229343DBB2602B01D1022306E0A6
:101BA000012304E0022302E0032300E004230A4AA5
:101BB0001362094B1B693A1D1100180001F042F82D
:101BC000054B1B69180001F083F8034B1800BD4654
:101BD00004B0B0BD940200201402002080B582B091
:101BE00000AF78600A00BB1C1A80BB1C1B88042B4A
:101BF00000D9B0E09A005A4BD3181B689F467B6807
:101C00005A687B685B6850205E21125A5A527B6882
:101C10005B685E331A007B681B6812885A809AE002
:101C20007B685A687B685B685221515A60229952DE
:101C300060229A5A7B681B68D2B21A718BE07B686B
:101C40005B6854229B5AD03B5A425341DAB2454B0F
:101C50001A7080E0434B1B78002B0FD0414B0022C1
:101C60001A707B685A687B685B685621515A5C22FF
:101C700099527A6812685C215B5A1380394B0122B1
:101C80001A7068E07B685B6858229B5CDB07DB0F9F
:101C9000DAB27B689B6811001800FEF7BDFD7B6817
:101CA0005B6858229B5C9B07DB0FDAB27B68DB68C2
:101CB00011001800FEF7B0FD7B685B6858229B5C42
:101CC0005B07DB0FDAB27B681B6911001800FEF7B7
:101CD000A3FD7B685B6858229B5C1B07DB0FDAB2B5
:101CE0007B685B6911001800FEF796FD7B685B68F6
:101CF00058229B5CDB06DB0FDAB27B689B69110024
:101D00001800FEF789FD7B685B6858229B5C9B0688
:101D1000DB0FDAB27B68DB6911001800FEF77CFD8F
:101D20007B685B6858229B5C5B06DB0FDAB27B68E2
:101D30001B6A11001800FEF76FFD7B685B68582274
:101D40009B5C1B06DB0FDAB27B685B6A1100180034
:101D5000FEF762FDC046C046BD4602B080BDC0462B
:101D6000584E000898020020F0B5BBB008AF3424EC
:101D70003B19180000F038FC3B191800FFF711F967
:101D80000300C422BA1813603B191800FFF755F975
:101D90000300C022BA1813603B191800FFF790F92E
:101DA0000300BC22BA1813603B191800FFF7CBF9E7
:101DB0000300B822BA1813603B191800FFF706FA9F
:101DC0000300B422BA1813603B191800FFF741FA58
:101DD0000300B022BA1813603B191800FFF77CFA11
:101DE0000300AC22BA1813603B191800FFF7B6FACB
:101DF0000300A822BA1813600C243B19180000F045
:101E00009FFD3B191800FFF7E2FA0300A422BA185D
:101E100013603B191800FFF713FB0300A022BA1848
:101E200013603B191800FFF744FB03009C22BA180B
:101E300013603B191800FFF775FB03009822BA18CE
:101E400013603B191800FFF7A6FB03009422BA1891
:101E500013603B191800FFF7D7FB03009022BA1854
:101E600013603B191800FFF708FC03008C22BA1816
:101E700013603B191800FFF739FC03008822BA18D9
:101E800013603B191800FFF774FC03008422BA1892
:101E900013603B191800FFF7AEFC03008022BA184C
:101EA00013603B1D180006231A00002102F054FEA7
:101EB0003B1D01221A713B1D1A793B1D5B88191CC1
:101EC0001000FFF72DFE0300FB67FB6F5A2207216E
:101ED00099523B1D1988FB6F5C229952FB6F3A1D8A
:101EE0005E2152885A523B1D1B7999B2FB6F6022CA
:101EF000995254217B183A1D1A607B18FA6F5A6068
:101F00007B18C422BA1812689A607B18C022BA18CB
:101F10001268DA607B18BC22BA1812681A617B1842
:101F2000B822BA1812685A617B18B422BA1812681B
:101F30009A617B18B022BA181268DA617B18AC2259
:101F4000BA1812681A627B18A822BA1812685A6264
:101F50007818FC6F6B461A0003000C3362CB62C228
:101F600062CB62C21B68136001684268836820000C
:101F700000F0F5FEA423FB181B681800FEF766FCB2
:101F800003001800FB6F6222012108400400995CE5
:101F900001208143081C211C01439954A023FB18F4
:101FA0001B681800FEF752FC03001800FB6F62224A
:101FB000012101404C18995C02208143081C211C1E
:101FC000014399549C23FB181B681800FEF73EFC44
:101FD00003001800FB6F6222012101408C00995C14
:101FE00004208143081C211C014399549823FB18A9
:101FF0001B681800FEF72AFC03001800FB6F622222
:1020000001210140CC00995C08208143081C211C5F
:10201000014399549423FB181B681800FEF716FC23
:1020200003001800FB6F6222012101400C01995C42
:1020300010208143081C211C014399549023FB1854
:102040001B681800FEF702FC03001800FB6F6222F9
:10205000012101404C01995C20208143081C211C76
:10206000014399548C23FB181B681800FEF7EEFB04
:1020700003001800FB6F6222012101408C01995C72
:1020800040208143081C211C014399548823FB18DC
:102090001B681800FEF7DAFB03001900FB6F6222D1
:1020A000CC01995C7F200140081C211C01439954FC
:1020B0008423FB181B681800FEF7C8FB03001900F7
:1020C000FB6F62229B180122114008005A780121FF
:1020D0008A43111C021C0A435A708023FB181B6898
:1020E0001800FEF7B3FB03001900FB6F62229B1878
:1020F00001220A4090185A7802218A43111C021CBE
:102100000A435A7030BFF4E680B582B000AF786001
:1021100039607B685A683B685A607B685B68002B53
:1021200003D07B685B683A689A607B683A685A605B
:102130007B681B68002B02D17B683A681A60C04636
:10214000BD4602B080BD80B582B000AF7860396016
:102150003B685B68002B0ED03B689B68002B0AD065
:102160003B685B683A6892689A603B689B683A682B
:1021700052685A602DE03B689B68002B0FD03B688B
:102180009A687B681A607B681B6800225A607B68CB
:102190001B68002B1DD17B6800225A6019E03B6848
:1021A0005B68002B0FD03B685A687B685A607B687D
:1021B0005B6800229A607B685B68002B09D17B68B2
:1021C00000221A6005E07B6800221A607B6800220A
:1021D0005A603B6800225A603B6800229A60C04601
:1021E000BD4602B080BD80B584B000AF78607B682A
:1021F0001A680C23FB181100180000F05FFEFB6842
:102200001800BD4604B080BD80B582B000AF7860D4
:102210007B6800221A607B681800BD4602B080BD52
:1022200080B584B000AF78600023FB600C23FB18FE
:102230001800FFF7E9FFFB681800BD4604B080BD39
:1022400080B582B000AF786039607B681A683B68FF
:102250001B68D31A5A1E9341DBB21800BD4602B068
:1022600080BD80B582B000AF78607B681B689A68DB
:102270007B681A607B681800BD4602B080BD80B5DF
:1022800082B000AF78607B681B681800BD4602B062
:1022900080BD000080B500AF014B1800BD4680BD79
:1022A00010E000E080B584B000AF78600E4BFB60BA
:1022B0000D4A7B6811001800FEF746F97B6818008C
:1022C000FEF74EF97B6801211800FEF754F97B6890
:1022D0001800FEF769F97B681800FEF772F9C0462E
:1022E000BD4604B080BDC0467FBB000080B500AFD6
:1022F000014B1800BD4680BD0010024080B500AF04
:10230000044B19000820FEF7B3F803001800BD467F
:1023100080BDC0460000024080B500AF014B1800F0
:10232000BD4680BD0038014080B500AFFFF7DEFF3D
:1023300003001800FEF712F803001800FEF71DF85E
:10234000030000211800FDF781FF030000211800A1
:10235000FDF796FF030002211800FDF7ADFF030013
:1023600004211800FDF7DEFF030001211800FDF72E
:10237000BDFF03001800FEF714F803001800FEF775
:102380001FF8C046BD4680BD80B500AF0F4B1B682F
:10239000012213400AD100F09FFD01000C4B0022E6
:1023A0001800FEF7F7F9094B01221A60FFF79EFFAC
:1023B0000300180000F098FD054B1B68180000F0A2
:1023C000A1FD034B1800BD4680BDC046A4020020FD
:1023D0009C02002080B500AF0F4B1B680122134008
:1023E0000AD100F0F0FA01000C4B07221800FEF7AA
:1023F000D1F9094B01221A60FFF778FF030018009A
:1024000000F0E8FA054B1B68180000F088FD034B4C
:102410001800BD4680BDC046B0020020A8020020C2
:1024200080B500AF0F4B1B68012213400AD100F0AA
:10243000CAFA01000C4B06221800FEF7ABF9094B53
:1024400001221A60FFF752FF0300180000F0C2FAE1
:10245000054B1B68180000F06FFD034B1800BD46CC
:1024600080BDC046BC020020B402002080B500AF91
:102470000F4B1B68012213400AD100F0A4FA01009F
:102480000C4B05221800FEF785F9094B01221A6052
:10249000FFF72CFF0300180000F09CFA054B1B68A7
:1024A000180000F056FD034B1800BD4680BDC04625
:1024B000C8020020C002002080B500AF0F4B1B688F
:1024C000012213400AD100F007FD01000C4B052248
:1024D0001800FEF75FF9094B01221A60FFF706FFAB
:1024E0000300180000F000FD054B1B68180000F009
:1024F0003DFD034B1800BD4680BDC046D402002000
:10250000CC02002080B500AF0F4B1B6801221340A6
:102510000AD100F0E1FC01000C4B04221800FEF788
:1025200039F9094B01221A60FFF7E0FE0300180099
:1025300000F0DAFC054B1B68180000F024FD034B8B
:102540001800BD4680BDC046E0020020D802002031
:1025500080B500AF0F4B1B68012213400AD100F079
:10256000BBFC01000C4B03221800FEF713F9094BCA
:1025700001221A60FFF7BAFE0300180000F0B4FC55
:10258000054B1B68180000F00BFD034B1800BD46FF
:1025900080BDC046EC020020E402002080B500AF00
:1025A0000F4B1B68012213400AD100F00CFA010006
:1025B0000C4B0F221800FEF7EDF8094B01221A60B0
:1025C000FFF794FE0300180000F004FA054B1B68A7
:1025D000180000F0F2FC034B1800BD4680BDC04659
:1025E000F8020020F0020020F0B5C64600B58AB01F
:1025F00006AFF860FFF7C8FEB860FFF7EBFE786043
:10260000FFF70EFF3860FFF731FF0400FFF754FFBC
:102610000500FFF777FF0600FFF79AFF8046FFF7F8
:10262000BDFF0300F86804934346039302960195A7
:1026300000943B687A68B96800F0CCFCF868BD4645
:1026400004B004BC9046F0BD80B500AF0F4B1B68D2
:10265000012213400AD100F0B6F901000C4B092207
:102660001800FEF797F8094B01221A60FFF73EFEAB
:102670000300180000F0AEF9054B1B68180000F0CD
:10268000C5FC034B1800BD4680BDC04604030020B6
:10269000FC02002080B500AF0F4B1B6801221340E5
:1026A0000AD100F090F901000C4B08221800FEF747
:1026B00071F8094B01221A60FFF718FE0300180099
:1026C00000F088F9054B1B68180000F0ACFC034BC8
:1026D0001800BD4680BDC04610030020080300203E
:1026E00080B500AF0F4B1B68012213400AD100F0E8
:1026F000F3FB01000C4B0F221800FEF74BF8094BBF
:1027000001221A60FFF7F2FD0300180000F0ECFB55
:10271000054B1B68180000F093FC034B1800BD46E6
:1027200080BDC0461C0300201403002080B500AF0C
:102730000F4B1B68012213400AD100F0CDFB0100B2
:102740000C4B0E221800FEF725F8094B01221A60E7
:10275000FFF7CCFD0300180000F0C6FB054B1B681B
:10276000180000F07AFC034B1800BD4680BDC0463F
:10277000280300202003002080B500AF0F4B1B680A
:10278000012213400AD100F0A7FB01000C4B0D22DF
:102790001800FDF7FFFF094B01221A60FFF7A6FDA5
:1027A0000300180000F0A0FB054B1B68180000F0A8
:1027B00061FC034B1800BD4680BDC04634030020B9
:1027C0002C03002080B500AF0F4B1B680122134083
:1027D0000AD100F081FB01000C4B0C221800FDF720
:1027E000D9FF094B01221A60FFF780FD0300180092
:1027F00000F07AFB054B1B68180000F048FC034B07
:102800001800BD4680BDC0464003002038030020AC
:1028100080B500AF0F4B1B68012213400AD100F0B6
:102820005BFB01000C4B0B221800FDF7B3FF094BBB
:1028300001221A60FFF75AFD0300180000F054FB54
:10284000054B1B68180000F02FFC034B1800BD4619
:1028500080BDC0464C0300204403002080B500AF7B
:102860000F4B1B68012213400AD100F035FB010019
:102870000C4B0A221800FDF78DFF094B01221A604C
:10288000FFF734FD0300180000F02EFB054B1B681A
:10289000180000F016FC034B1800BD4680BDC04672
:1028A000580300205003002080B500AF0F4B1B6879
:1028B000012213400AD100F00FFB01000C4B022251
:1028C0001800FDF767FF094B01221A60FFF70EFDA4
:1028D0000300180000F008FB054B1B68180000F00F
:1028E000FDFB034B1800BD4680BDC04664030020BD
:1028F0005C03002080B500AF0F4B1B680122134022
:102900000AD100F0E9FA01000C4B01221800FDF792
:1029100041FF094B01221A60FFF7E8FC0300180091
:1029200000F0E2FA054B1B68180000F0E4FB034BD3
:102930001800BD4680BDC04670030020680300201B
:10294000F0B5D6464F464646C0B58CB008AFF860E5
:10295000FFF77AFEB860FFF79DFE7860FFF7C0FED4
:102960003860FFF7E3FE0400FFF706FF0500FFF7FE
:1029700029FF0600FFF74CFF8046FFF76FFF8146F7
:10298000FFF792FF8246FFF7B5FF0300F868069352
:10299000534605934B460493434603930296019591
:1029A00000943B687A68B96800F0B2FBF868BD46ED
:1029B00004B01CBC90469946A246F0BD80B500AF5D
:1029C000C046BD4680BD80B500AF9023DB05180032
:1029D000BD4680BD80B582B000AF78607B685A6923
:1029E000802189020A435A61C046BD4602B080BDBB
:1029F00080B582B000AF78607B680221180000F0DB
:102A0000A7FB7B680121180000F0BCFBC046BD4657
:102A100002B080BD80B582B000AF78607B680221D3
:102A2000180000F0CBFB7B680121180000F0E0FBF0
:102A3000C046BD4602B080BD80B582B000AF7860B0
:102A40007B680121180000F0EFFBC046BD4602B0D4
:102A500080BD000080B500AF014B1800BD4680BDB1
:102A60001C00024080B500AF014B1800BD4680BD80
:102A70003000024080B582B000AF78607A68802371
:102A80005B000021D1507A6882235B000021D15085
:102A90007B681800BD4602B080BD80B584B000AF31
:102AA000F860B9607A603B60FB681800FFF7E2FFEE
:102AB000FA6884235B00B968D150FA6886235B000A
:102AC0007968D150FA6888235B003968D150FA6878
:102AD0008A235B00F969D150FA688C235B00B969DD
:102AE000D150FA688E235B00396AD150FA6890237E
:102AF0005B00796AD150FA6892235B00B96AD150C1
:102B0000FA6894235B00F96AD150FB681800BD464F
:102B100004B080BD80B582B000AF78607B689A69F0
:102B20008021C9010A439A61C046BD4602B080BDFA
:102B300080B582B000AF78607B685A6901210A4392
:102B40005A61C046BD4602B080BD80B582B000AFBC
:102B500078607B68180000F081FB03001800BD4618
:102B600002B080BD90B585B000AFF8607A603B6080
:102B70000B243B190A1C1A70FB681800FDF78EFD28
:102B80002F4AFB681A60FB687A681A61FB683A682A
:102B90005A61FB683A6A9A61FB680022DA61FB6855
:102BA00000221A62FB683A19242112785A54FB68F1
:102BB0000022DA84FB6800221A85FB6800225A850D
:102BC000FB682C2200219954FB6800221A86FB68BE
:102BD0003833FA681100180000F060FBFB684433DA
:102BE000FA681100180000F077FBFB6850330A22E6
:102BF0000021180001F0B0FFFB685A229B180A223E
:102C00000021180001F0A8FFFB6864330A220021AC
:102C1000180001F0A1FFFB686E229B180A22002118
:102C2000180001F099FFFB68783305220021180095
:102C300001F092FFFB681800BD4605B090BDC0468C
:102C4000744E000880B582B000AF786039607A6851
:102C50008C235B00D0583B681B781B065B0FDBB2F4
:102C600019007A6892235B00D3581A00FDF716FF0B
:102C700002003B681B789B07DB0FDBB219001000DA
:102C8000FDF7F2FD02003B681B785B07DB0FDBB250
:102C900019001000FDF704FE02003B681B78DB06FC
:102CA0009B0FDBB219001000FDF716FE02003B6817
:102CB0001B78DB07DB0FDBB219001000FDF78EFE7F
:102CC00003001800FDF724FEC046BD4602B080BDDB
:102CD00080B582B000AF78607B68180000F01AFB06
:102CE0007A6888235B00D35800211800FDF794FD13
:102CF0007A688E235B00D3581800FDF7A9FF7A6825
:102D000090235B00D3581800FDF7A2FF0300FF21BA
:102D10001800FDF7E1FF7A6890235B00D358180094
:102D2000FDF77DFF7A688C235B00D35801211800E2
:102D3000FDF76DFEC046BD4602B080BD80B582B0D5
:102D400000AF78607A6882235B00D258796880236C
:102D50005B00CB58D31A1800BD4602B080BD84B0CA
:102D6000F0B5C64600B58AB008AF786004201824D4
:102D7000A4460824A046B844C444604401604260AC
:102D800083607B681B69180000F0D6FA031E07D029
:102D90007B680022DA617B681800FDF795FC85E00E
:102DA0007B68DA697B681B6A9A4200DA7DE07B689F
:102DB0000022DA617B681800FDF786FC7B681B69DE
:102DC0001800FFF7BBFF0100072200238A425B4186
:102DD000DBB2002B05D07B681B691800FFF778FF7A
:102DE00064E07B681B69180000F0C2FA03001A78DF
:102DF0007B6824215B5CD31A5A1E9341DBB2002B03
:102E000005D07B681B691800FFF762FF4EE07B6806
:102E1000180000F0A3FB03001A0001235340DBB2AB
:102E2000002B05D07B681B691800FFF751FF3DE0C0
:102E30007B681B69180000F0DAFB7B681B691800CF
:102E400000F0D5FB030019007B68252299547B68AC
:102E500025229B5C032B04D17B68180000F0EFFB5C
:102E600024E07B6825229B5C102B18D104231822B8
:102E700008218C46BC446244D0187C686B461A001A
:102E800003000C3362CB62C262CB62C21B68136068
:102E9000016842688368200000F055FC06E07B680A
:102EA0000121180000F002FD00E0C046BD4602B05E
:102EB00004BC9046F0BC08BC04B0184780B582B092
:102EC00000AF786039607B683A681A607B681800E8
:102ED000BD4602B080BD000080B500AF014B1800B8
:102EE000BD4680BD0004004880B582B000AF786068
:102EF0007B685A698021C9020A435A61C046BD46AF
:102F000002B080BD80B582B000AF78607B680121DF
:102F1000180000F067FDC046BD4602B080BD80B518
:102F200082B000AF78607B680121180000F074FD6A
:102F3000C046BD4602B080BD80B582B000AF7860AB
:102F40007B680121180000F083FDC046BD4602B039
:102F500080BD80B582B000AF78607B680121180029
:102F600000F092FDC046BD4602B080BD80B582B083
:102F700000AF78607B680121180000F085FDC04635
:102F8000BD4602B080BD80B582B000AF78607B687E
:102F90000121180000F094FDC046BD4602B080BD7E
:102FA00080B582B000AF78607B680121180000F026
:102FB00005F9C046BD4602B080BD80B582B000AF05
:102FC00078607B680121180000F096FDC046BD4680
:102FD00002B080BD90B58BB006AFF860B9607A6082
:102FE0003B603C687A68B968F8683B6B0493FB6A9D
:102FF0000393BB6A02937B6A01933B6A00932300AD
:1030000000F092FDF868BD4605B090BD80B582B075
:1030100000AF78607B680021180000F0A3FDC04677
:10302000BD4602B080BD80B582B000AF78607B68DD
:103030000021180000F0B2FDC046BD4602B080BDC0
:1030400080B582B000AF78607B680021180000F086
:1030500053FDC046BD4602B080BD80B582B000AF12
:1030600078607B680021180000F0B4FDC046BD46C2
:1030700002B080BD80B582B000AF78607B6800216F
:10308000180000F0C3FDC046BD4602B080BD80B54B
:1030900082B000AF78607B680021180000F0D2FD9C
:1030A000C046BD4602B080BD80B582B000AF78603A
:1030B0007B680021180000F0E1FDC046BD4602B06B
:1030C00080BD80B582B000AF78607B6800211800B9
:1030D00000F0F0FDC046BD4602B080BD80B582B0B4
:1030E00000AF78607B680021180000F031F8C0461E
:1030F000BD4602B080BD80B582B000AF78607B680D
:103100000021180000F090F8C046BD4602B080BD16
:1031100090B58DB008AFF860B9607A603B603C68EC
:103120007A68B968F868BB6B06937B6B05933B6B59
:103130000493FB6A0393BB6A02937B6A01933B6A25
:103140000093230000F0D2FDF868BD4605B090BDA5
:1031500080B582B000AF78600A00FB1C1A70FB1CBF
:103160001B7803221340DAB27B6803210A40120164
:103170001968302081430A431A607B681800BD46F5
:1031800002B080BD80B582B000AF78600A00FB1C41
:103190001A70FB1C1B780F221340DAB27B680F21D8
:1031A0000A401202196A044801400A431A627B6805
:1031B0001800BD4602B080BDFFF0FFFF80B582B0B1
:1031C00000AF78600A00FB1C1A70FB1C1B780322FE
:1031D0001340DAB27B6803210A4092011968C020CB
:1031E00081430A431A607B681800BD4602B080BD67
:1031F00080B582B000AF78600A00FB1C1A70FB1C1F
:103200001B780F221340DAB27B680F210A401203A9
:10321000196A044801400A431A627B681800BD46D7
:1032200002B080BDFF0FFFFF80B582B000AF7860B5
:103230000A00FB1C1A70FB1C1B7803221340DAB235
:103240007B6803210A40920019680C2081430A43DD
:103250001A607B681800BD4602B080BD80B582B0A0
:1032600000AF78607B68180000F061FD0300180073
:10327000BD4602B080BD000080B582B000AF78606E
:10328000054A7B681A607B6800225A607B681800D8
:10329000BD4602B080BDC046984E000880B582B0E1
:1032A00000AF786039607B681800FFF7E5FF094AD6
:1032B0007B681A607B683A689A603B685B697A68E9
:1032C00011001800FDF7A8FD7B681800BD4602B08C
:1032D00080BDC0468C4E000880B582B000AF7860DB
:1032E00039607B681800FFF7C7FF094A7B681A60DE
:1032F0007B683A689A603B689B697A68110018009D
:10330000FDF78AFD7B681800BD4602B080BDC0464F
:10331000804E000880B582B000AF78607A68802364
:103320005B000021D1507A6882235B000021D150DC
:10333000C046BD4602B080BD90B583B000AF786096
:103340007B681800FFF7FAFC04007A6890235B00A2
:10335000D3581800FDF730FD03001A00FF239B1A15
:103360009C429B415B42DBB21800BD4603B090BD5E
:1033700080B582B000AF78607B681800FEF7CCFAA9
:103380007A6880235B00D358190000F0D9FC030051
:103390001800BD4602B080BD80B582B000AF786035
:1033A0007B681800FEF7B8FA03001800FFF7CDFBA2
:1033B00001007A6882235B00D358CB181800BD4601
:1033C00002B080BD90B587B000AFF860B9607A6098
:1033D0001623FB18FF221A701523FB18FF221A7000
:1033E000BB685A1CBA60197815243B191A78172043
:1033F0003B184A401A7001007B181B780F4AD25CB8
:1034000016203B181B785340DAB23B191A707B1810
:103410001B780B4AD25C3B181A70BA687B689A42D8
:1034200000D0DDE71623FA181523F918FB681800F9
:1034300000F0C9FCF868BD4607B090BD384C0008E4
:10344000384D000880B582B000AF78607B68180006
:1034500000F005F803001800BD4602B080BD80B53D
:1034600082B000AF78607B68180000F005F80300B8
:103470001800BD4602B080BD80B582B000AF786054
:103480007B680133180000F005F803001800BD4602
:1034900002B080BD80B582B000AF78607B68180054
:1034A000BD4602B080BD80B582B000AF78607B6859
:1034B0001800FFF7C7FF0300180000F005F803002D
:1034C0001800BD4602B080BD80B582B000AF786004
:1034D0007B681800BD4602B080BD80B582B000AFE9
:1034E00078607B68180000F005F803001800BD46FE
:1034F00002B080BD80B582B000AF78607B681800F4
:1035000000F005F803001800BD4602B080BD80B58C
:1035100082B000AF78607B68180000F005F8030007
:103520001800BD4602B080BD80B582B000AF7860A3
:103530007B681800BD4602B080BD80B582B000AF88
:1035400078607B681800FFF7C8FF03001800FFF7DA
:10355000BBFF03001800BD4602B080BDF0B587B0C8
:1035600000AF78607B681B691726BC19180000F053
:10357000F7FB030023707B681B691622BC18180038
:1035800000F0EEFB030023707B681B691800FEF758
:10359000CCF904007B681B691800FFF7FDFE0200F0
:1035A00008257B1921001800FFF70CFF2C003B19A0
:1035B0001800FFF778FF03003B613B191800FFF785
:1035C000BCFF0300FB60FB681B78BA1912789A42B3
:1035D00008D13B691B781622BA1812789A4201D199
:1035E000012300E000231800BD4607B0F0BD90B5F0
:1035F00083B000AF78607A6882235B00D258796824
:1036000080235B00CB589A4214D97B681800FEF7E0
:1036100083F904007A6880235B00D358581C7968CA
:103620008022520088501900200000F089FB03001E
:103630001B7800E000231800BD4603B090BDB0B574
:1036400086B000AF78607B680521180000F0D6FBDB
:1036500003001A0001235340DBB2002B05D07B6826
:103660000221180000F022F96AE07B681B6918004B
:10367000FFF750FE7B681B6918007B6824229B5C67
:10368000190000F0F6FB03000321180000F0F1FB25
:103690007B682C229B5C190000F0EBFB7B685B8D48
:1036A0005A1E91B27A6851855A1E9341DBB2002BA3
:1036B00012D07B681B6918007B68DB8C5A1C91B2A6
:1036C0007A68D1847A682C335B00D31802331B8864
:1036D000190000F02FFCE1E77B681B691800FEF77A
:1036E00024F904007B681B691800FFF755FE0200EF
:1036F0000C257B1921001800FFF764FE2C003B19F4
:103700001800FFF7D0FE03007B613B191800FFF79C
:1037100014FF03003B617B681B691A007B691B78FF
:103720001900100000F0A5FB02003B691B7819008E
:10373000100000F09EFB7B681B69180000F028FC5D
:10374000BD4606B0B0BD84B0B0B586B000AF7860FD
:1037500004202824A446BC44604401604260836085
:103760007B680521180000F049FB03001A000123C3
:103770005340DBB2002B05D07B680221180000F01B
:1037800095F88DE07B681B691A007B682C33190063
:10379000100000F03AFC7B68180000F064FC0300A5
:1037A0001A0001235340DBB2002B05D07B680321B4
:1037B000180000F07BF873E01623FB1800221A8033
:1037C0007B685B8D1622BA1812889A4212D27B68E7
:1037D000DA8C16243B191B88D3189AB22C23FB18B9
:1037E00011001800FEF7FAF93B191A883B1901324B
:1037F0001A80E5E77B681B691800FFF78BFD7B6883
:103800001B6918007B6824229B5C190000F031FBC7
:103810007B6825229B5C190000F02BFB02007B6873
:10382000DB8C1900100000F085FB02007B685B8DCB
:103830001900100000F07EFB7B681B691800FEF782
:1038400074F804007B681B691800FFF7A5FD0200EF
:1038500008257B1921001800FFF7B4FD2C003B1947
:103860001800FFF720FE03003B613B191800FFF72B
:1038700064FE0300FB607B681B691A003B691B78D0
:103880001900100000F0F5FA0200FB681B7819001F
:10389000100000F0EEFA7B681B69180000F078FB5E
:1038A000BD4606B0B0BC08BC04B01847B0B586B081
:1038B00000AF78600A00FB1C1A707B681B69180057
:1038C000FFF728FDFB1C1B78012B1ED17B681B69B1
:1038D00018007B6824229B5C190000F0CAFA0400DF
:1038E0007B6825229A5C7B681100180000F091FC2F
:1038F00003001900200000F0BCFA0200FB1C1B783A
:103900001900100000F0B5FA34E0FB1C1B78022B04
:1039100016D17B681B6918007B6824229B5C190008
:1039200000F0A7FA7B6825229B5C190000F0A1FA41
:103930000200FB1C1B781900100000F09AFA19E035
:10394000FB1C1B78032B15D17B681B6918007B6857
:1039500024229B5C190000F08CFA7B6825229B5C7A
:10396000190000F086FA0200FB1C1B7819001000F9
:1039700000F07FFA7B681B691800FDF7D6FF040092
:103980007B681B691800FFF707FD02000C257B19F7
:1039900021001800FFF716FD2C003B191800FFF757
:1039A00082FD03007B613B191800FFF7C6FD030091
:1039B0003B617B681B691A007B691B78190010004A
:1039C00000F057FA02003B691B781900100000F064
:1039D00050FA7B681B69180000F0DAFAC046BD4651
:1039E00006B0B0BD80B582B000AF78600A00FB1CA5
:1039F0001A70FB1C1B7803221340DAB27B68032188
:103A00000A401968032081430A431A607B68180042
:103A1000BD4602B080BD000080B582B000AF7860C6
:103A20000A00FB1C1A70FB1C1B7803221340DAB23D
:103A30007B6803210A4092031968044801400A4345
:103A40001A607B681800BD4602B080BDFF3FFFFFD3
:103A500080B582B000AF78600A00FB1C1A70FB1CB6
:103A60001B7803221340DAB27B6803210A40120359
:103A70001968044801400A431A607B681800BD4673
:103A800002B080BDFFCFFFFF80B582B000AF78608D
:103A90000A00FB1C1A70FB1C1B7803221340DAB2CD
:103AA0007B6803210A4092021968044801400A43D6
:103AB0001A607B681800BD4602B080BDFFF3FFFFAF
:103AC00080B582B000AF78600A00FB1C1A70FB1C46
:103AD0001B7803221340DAB27B6803210A401202EA
:103AE0001968044801400A431A607B681800BD4603
:103AF00002B080BDFFFCFFFF80B582B000AF7860F0
:103B00000A00FB1C1A70FB1C1B7803221340DAB25C
:103B10007B6892071968890089080A431A607B68E4
:103B20001800BD4602B080BD90B58BB006AFF860FE
:103B3000B9607A603B60F8683C687A68B9683B6B4A
:103B40000493FB6A0393BB6A02937B6A01933B6A0B
:103B50000093230000F06EFBFB681800BD4605B023
:103B600090BD000080B582B000AF78600A00FB1CF9
:103B70001A70FB1C1B7803221340DAB27B68032106
:103B80000A4092041968044801400A431A607B689D
:103B90001800BD4602B080BDFFFFF3FF80B582B0C4
:103BA00000AF78600A00FB1C1A70FB1C1B78032214
:103BB0001340DAB27B6803210A40120419680448F2
:103BC00001400A431A607B681800BD4602B080BD00
:103BD000FFFFFCFF80B582B000AF78600A00FB1CDD
:103BE0001A70FB1C1B7803221340DAB27B68032196
:103BF0000A4012071968044801400A431A607B68AA
:103C00001800BD4602B080BDFFFFFFCF80B582B077
:103C100000AF78600A00FB1C1A70FB1C1B780322A3
:103C20001340DAB27B6803210A40920619680448FF
:103C300001400A431A607B681800BD4602B080BD8F
:103C4000FFFFFFF380B582B000AF78600A00FB1C75
:103C50001A70FB1C1B7803221340DAB27B68032125
:103C60000A4012061968044801400A431A607B683A
:103C70001800BD4602B080BDFFFFFFFC80B582B0DA
:103C800000AF78600A00FB1C1A70FB1C1B78032233
:103C90001340DAB27B6803210A4012051968044810
:103CA00001400A431A607B681800BD4602B080BD1F
:103CB000FFFFCFFF80B582B000AF78600A00FB1C29
:103CC0001A70FB1C1B7803221340DAB27B680321B5
:103CD0000A4012051968044801400A431A607B68CB
:103CE0001800BD4602B080BDFFFFCFFF90B58DB07C
:103CF00008AFF860B9607A603B60F8683C687A6841
:103D0000B968BB6B06937B6B05933B6B0493FB6AB3
:103D10000393BB6A02937B6A01933B6A009323007F
:103D200000F0AAFAFB681800BD4605B090BD80B54A
:103D300082B000AF78607B681800BD4602B080BDDD
:103D400080B582B000AF786039607B683A68110056
:103D5000180000F0B7FA03001800BD4602B080BD9D
:103D600080B582B000AF78607A6882235B00D25859
:103D7000796880235B00CB589A4216D97B6818007B
:103D8000FDF7CAFD7A6882235B00D358591E7A6812
:103D900082235B00D1507A6882235B00D3581900DC
:103DA000FFF7CEFF03001B7800E000231800BD469C
:103DB00002B080BD80B582B000AF78607B6818002B
:103DC000BD4602B080BDB0B584B000AFF860B96048
:103DD0007A60FC68BB681800FFF7ECFF05007B68A1
:103DE0001800FFF7E7FF03001A002900200000F089
:103DF00075FAFB681800BD4604B0B0BD80B582B04E
:103E000000AF78600A00BB1C1A807B681B691A002F
:103E10007B6826331900100000F09BFA7B681B6951
:103E20001A007B682A331900100000F092FA7B68B0
:103E3000DA8C7B685B8DD3189BB2013B9AB27B68AE
:103E40001A857B685B8DDBB2DB18D9B27B682C22CC
:103E500099547B681B8D1A00BB1C1B88013BD00F3B
:103E6000D917934248410300DBB21800BD4602B0A7
:103E700080BD90B583B000AF78600A00FB1C1A705B
:103E80007A6882235B00D358FE2B11D8FB1C1C7868
:103E90007B681800FFF780FA0300221C1A707A680A
:103EA00082235B00D358591C7A6882235B00D1506F
:103EB0007B681800BD4603B090BD80B582B000AFEE
:103EC000786039607B683A681100180000F005F8E6
:103ED00003001800BD4602B080BD80B582B000AFBF
:103EE000786039607A683B68D3181800BD4602B024
:103EF00080BDB0B586B000AFF860B960BB1D1A8058
:103F000014257B19BA1D12881A807B19002118000C
:103F1000FFF7D3FF04007B1901211800FFF7CDFF45
:103F20000200FB6821001800FFF74DFFF868BD464E
:103F300006B0B0BD90B587B000AF78600A00BB1C7A
:103F40001A800C243819BB1C1A887B681900FFF7EB
:103F5000D0FF3B191800FFF7A6FA03007B613B195D
:103F60001800FFF7EAFA03003B613B691A787B68A7
:103F700011001800FFF77DFF02007B691B78190014
:103F80001000FFF776FF7B681800BD4607B090BDB4
:103F900090B583B000AF78607A6888235B00D3580F
:103FA00001211800FCF738FC7A688C235B00D35899
:103FB00000211800FCF72BFD7A6890235B00D35892
:103FC0001800FCF745FE7A688E235B00D358180072
:103FD000FCF73EFE7A688E235B00D4587B6818009D
:103FE000FEF7ACFE03009BB202339BB21900200027
:103FF000FCF772FE7A688E235B00D3581800FCF73A
:104000000EFEC046BD4603B090BD90B583B000AF74
:10401000786039607A6882235B00D258796880239F
:104020005B00CB589A4216D97B681800FDF774FCE8
:1040300004007A6880235B00D358581C796880227A
:104040005200885019002000FFF77AFE03001A780A
:104050003B681A7002E03B6800221A707B68180007
:10406000BD4603B090BD80B584B000AF78600E232C
:10407000FB1800221A807B685B8D0E22BA1812880A
:104080009A4200D3C0E07B681B691A007B682E331C
:104090001900100000F05DF97B68DB8C1A000E231C
:1040A000FB181B88D3187A687821D3185B181B7803
:1040B000002B53D07B68DB8D1AB27B68DB8C190038
:1040C0000E23FB181B88CB18796830335B00CB18A4
:1040D00004331B881BB29A420EDA7B68DB8C1A0011
:1040E0000E23FB181B88D3187A6830335B00D31873
:1040F00004331B88002B21D17B68DB8D1AB27B68CF
:10410000DB8C19000E23FB181B88CB18796834331D
:104110005B00CB1806331B881BB29A4210DD7B680C
:10412000DB8C1A000E23FB181B88D3187A683433F3
:104130005B00D31806331B88002B01D0002364E0FA
:104140007B68DB8C1A000E23FB181B88D2187B6857
:10415000D98D7B6828325200D1524EE07B68DA8DCF
:104160007B68DB8C19000E23FB181B88CB18796841
:1041700030335B00CB1804331B889A420ED27B6825
:10418000DB8C1A000E23FB181B88D3187A68303397
:104190005B00D31804331B88002B1FD17B68DA8D9A
:1041A0007B68DB8C19000E23FB181B88CB18796801
:1041B00034335B00CB1806331B889A4210D97B68D6
:1041C000DB8C1A000E23FB181B88D3187A68343353
:1041D0005B00D31806331B88002B01D0002314E0AA
:1041E0007B68DB8C1A000E23FB181B88D2187B68B7
:1041F000D98D7B6828325200D1520E217B181A8843
:104200007B1801321A8036E701231800BD4604B03E
:1042100080BD80B582B000AF78600A00FB1C1A70C8
:10422000FB1C1B78802252421343DBB21800BD46B0
:1042300002B080BD90B589B004AFF860B9607A6013
:104240003B60F8683C6A3A6879683B6B0393FB6AA9
:104250000293BB6A01937B6A0093230000F0AEF8DF
:10426000FB681C33BA681100180000F0C7F8FB683F
:104270001800BD4605B090BD90B58BB006AFF86094
:10428000B9607A603B60F8683C6A3A687968BB6BF1
:1042900005937B6B04933B6B0393FB6A0293BB6AAE
:1042A00001937B6A0093230000F0B5F8FB68243388
:1042B000BA681100180000F0A1F8FB681800BD46AC
:1042C00005B090BD80B582B000AF786039607A6883
:1042D0003B68D3181800BD4602B080BD90B585B0CC
:1042E00000AFF860B9607A60FC687B681800FFF77F
:1042F00061FD03001900200000F0B1F8FB685C1CB0
:10430000BB681800FFF756FD03001900200000F0FD
:10431000BAF8FB681800BD4605B090BD80B584B002
:1043200000AF786008001100FB1C021C1A70BB1C57
:104330000A1C1A700C217B18BA1C12781A707B1890
:10434000FA1C12785A707B181B881800BD4604B0FE
:1043500080BDF0B585B000AF786039607A6882239F
:104360005B00D258796880235B00CB5801339A42B6
:104370001CD90F257C197B681800FFF738F903005A
:1043800023700E26BC197B681800FFF730F9030074
:104390002370BB191A787B1919787B681800FFF70E
:1043A000BDFF03001A003B681A8002E03B68002250
:1043B0001A807B681800BD4605B0F0BD90B589B085
:1043C00004AFF860B9607A603B60F8683C6A3A68AC
:1043D0007968FB6A0293BB6A01937B6A00932300AE
:1043E00000F063F8FB681833BA681100180000F099
:1043F0007AF8FB681800BD4605B090BD80B582B064
:1044000000AF786039607B683A681A607B68180092
:10441000BD4602B080BD90B58BB006AFF860B96004
:104420007A603B60F8683C6A3A6879687B6B049311
:104430003B6B0393FB6A0293BB6A01937B6A009315
:10444000230000F05DF8FB682033BA681100180003
:1044500000F049F8FB681800BD4605B090BD90B566
:1044600083B000AF786039607C683B681800FFF764
:10447000A1FC03001900200000F064F87B6818001C
:10448000BD4603B090BD80B582B000AF78603960A2
:104490003B681800FFF78EFC03001A787B681A70DF
:1044A0007B681800BD4602B080BD90B587B002AFF2
:1044B000F860B9607A603B60F8683C6A3A6879688D
:1044C000BB6A01937B6A0093230000F04DF8FB6800
:1044D0001433BA681100180000F062F8FB68180085
:1044E000BD4605B090BD80B582B000AF7860396040
:1044F0007B683A681A607B681800BD4602B080BDD0
:1045000090B589B004AFF860B9607A603B60F86834
:104510003C6A3A6879683B6B0393FB6A0293BB6A17
:1045200001937B6A0093230000F047F8FB681C337B
:10453000BA681100180000F033F8FB681800BD4697
:1045400005B090BD80B582B000AF786039603B683F
:104550001800FFF72FFC03001A787B681A707B683D
:104560001800BD4602B080BD90B587B002AFF860BC
:10457000B9607A603B60F8683C6A3A6879687B6A3F
:104580000093230000F039F8FB681033BA6811007B
:10459000180000F04BF8FB681800BD4605B090BD50
:1045A00080B582B000AF786039607B683A681A6085
:1045B0007B681800BD4602B080BD90B589B004AFDD
:1045C000F860B9607A603B60F8683C6A3A6879687C
:1045D000FB6A0293BB6A01937B6A0093230000F09D
:1045E00032F8FB681833BA681100180000F01EF8A2
:1045F000FB681800BD4605B090BD80B584B000AF23
:10460000F860B9607A603B60F868BB693A687968BD
:1046100000F037F8FB680C33BA681100180000F09E
:1046200049F8FB681800BD4604B080BD80B582B073
:1046300000AF786039607B683A681A607B68180060
:10464000BD4602B080BD90B587B002AFF860B960DA
:104650007A603B60F8683C6A3A687968BB6A0193A3
:104660007B6A0093230000F032F8FB681433BA68C9
:104670001100180000F01EF8FB681800BD4605B0D8
:1046800090BD80B584B000AFF860B9607A603B60DF
:10469000FB683A687968180000F035F8FB68083361
:1046A000BA681100180000F046F8FB681800BD4613
:1046B00004B080BD80B582B000AF786039607B689F
:1046C0003A681A607B681800BD4602B080BD90B59C
:1046D00087B002AFF860B9607A603B60F8683C6A06
:1046E0003A6879687B6A0093230000F031F8FB6830
:1046F0001033BA681100180000F01DF8FB681800AC
:10470000BD4605B090BD80B584B000AFF860B9601B
:104710007A60FB687A681100180000F032F8FB68D4
:104720000433BA681100180000F03BF8FB68180069
:10473000BD4604B080BD80B582B000AF78603960FE
:104740007B683A681A607B681800BD4602B080BD7D
:1047500080B584B000AFF860B9607A603B60F868FB
:10476000BB693A68796800F029F8FB680C33BA68CD
:104770001100180000F015F8FB681800BD4604B0E1
:1047800080BD80B582B000AF786039607B683A68E0
:104790001100180000F02BF87B681800BD4602B02D
:1047A00080BD80B582B000AF786039607B683A68C0
:1047B0001A607B681800BD4602B080BD80B584B029
:1047C00000AFF860B9607A603B60FB683A6879686E
:1047D000180000F019F8FB680833BA6811001800D7
:1047E00000F005F8FB681800BD4604B080BD80B538
:1047F00082B000AF786039607B683A681A607B6885
:104800001800BD4602B080BD80B584B000AFF8602E
:10481000B9607A60FB687A681100180000F00CF843
:10482000FB680433BA681100180000F015F8FB6843
:104830001800BD4604B080BD80B582B000AF78607E
:1048400039607B683A681100180000F012F87B6844
:104850001800BD4602B080BD80B582B000AF786060
:1048600039607B683A681A607B681800BD4602B000
:1048700080BD80B582B000AF786039607B683A68EF
:104880001A607B681800BD4602B080BD80B582B05A
:1048900000AF786039607B68012B25D13B68144AF2
:1048A000934221D1134B1800FBF7B4FE124B1B218E
:1048B0001800FCF78CFA114B09211800FCF787FA55
:1048C0000F4B0A211800FCF782FA0E4B0A21180040
:1048D000FCF77DFA0C4B0B211800FCF778FA0B4B18
:1048E0000B211800FCF773FAC046BD4602B080BD2C
:1048F000FFFF0000880000209000002098000020AA
:10490000A0000020A8000020B0000020B800002077
:1049100080B582B000AF78607B68DB695A1C7B6829
:10492000DA61C046BD4602B080BD80B582B000AF3E
:1049300078607B689B68180000F011F8C046BD469F
:1049400002B080BD80B582B000AF78607B689B68A4
:10495000180000F018F8C046BD4602B080BD80B512
:1049600082B000AF78607B681B69180000F01EF809
:10497000031E04D07B681B691800FEF7A9F9C04626
:10498000BD4602B080BD80B582B000AF78607B6864
:104990001B69180000F01EF8031E03D07B68180086
:1049A000FBF7AAFEC046BD4602B080BD80B582B00E
:1049B00000AF78607A688A235B00D0587A689423C5
:1049C0005B00D3581900FCF70FF903001800BD462F
:1049D00002B080BDB0B584B000AF78607A688C2337
:1049E0005B00D3580F257C191800FCF727F803004B
:1049F00023707B191B78002B0FD07C687A6890237A
:104A00005B00D3581800FCF7D7F903001A00FF2306
:104A10009B1A1900200000F012F80F23FB181B78D6
:104A2000002B07D07B681800FEF788F9031E01D021
:104A3000012300E000231800BD4604B0B0BD80B5DE
:104A400084B000AF786039607A6880235B00002111
:104A5000D150FF23FB600C23FA183B001100180013
:104A6000FBF710FD030019687A6882235B00D150C0
:104A7000C046BD4604B080BD80B500AF034B1900F1
:104A80000120FFF703FFBD4680BDC046FFFF0000C9
:104A90000D4885460D480E490E4A002302E0D458C1
:104AA000C4500433C4188C42F9D30B4A0B4C002376
:104AB00001E013600432A242FBD3FCF739FA00F0A4
:104AC00027F8FDF751F9FEE7001000200000002054
:104AD0006C000020C04E00086C000020780300200D
:104AE000FEE710B500F004F810B5804700F008F8B4
:104AF000024B10B51868FFF7F7FFC046040000200E
:104B000010B5062000F05AF8012000F087F80000E8
:104B100070B500260C4D0D4C641BA410A64209D1A3
:104B2000002600F07DF80A4D0A4C641BA410A64232
:104B300005D170BDB300EB5898470136EEE7B300DE
:104B4000EB5898470136F2E7B44E0008B44E00081F
:104B5000B44E0008BC4E000803001218934200D166
:104B6000704719700133F9E770B504000D001F2973
:104B700004D9162303600120404270BD436C002B12
:104B800004D08A009B181A68002A08D1200000F07F
:104B900031F82A000100200000F01AF8EDE70020AB
:104BA000012AEAD0511C03D1162301302360E4E727
:104BB000002428001C6090472000DEE710B5034B5E
:104BC00001001868FFF7D0FF10BDC04608000020A4
:104BD000002370B5064C050008001100236000F0AA
:104BE00015F8431C03D12368002B00D02B6070BD47
:104BF0007403002010B500F001F810BD5822012008
:104C0000014B40421A607047740300205822012073
:104C1000014B40421A60704774030020FEE7C04613
:104C2000F8B5C046F8BC08BC9E467047F8B5C0460B
:084C3000F8BC08BC9E46704769
:104C380000C1814001C0804101C0804100C1814064
:104C480001C0804100C1814000C1814001C0804154
:104C580001C0804100C1814000C1814001C0804144
:104C680000C1814001C0804101C0804100C1814034
:104C780001C0804100C1814000C1814001C0804124
:104C880000C1814001C0804101C0804100C1814014
:104C980000C1814001C0804101C0804100C1814004
:104CA80001C0804100C1814000C1814001C08041F4
:104CB80001C0804100C1814000C1814001C08041E4
:104CC80000C1814001C0804101C0804100C18140D4
:104CD80000C1814001C0804101C0804100C18140C4
:104CE80001C0804100C1814000C1814001C08041B4
:104CF80000C1814001C0804101C0804100C18140A4
:104D080001C0804100C1814000C1814001C0804193
:104D180001C0804100C1814000C1814001C0804183
:104D280000C1814001C0804101C0804100C1814073
:104D380000C0C101C30302C2C60607C705C5C40433
:104D4800CC0C0DCD0FCFCE0E0ACACB0BC90908C8A3
:104D5800D81819D91BDBDA1A1EDEDF1FDD1D1CDC93
:104D680014D4D515D71716D6D21213D311D1D01003
:104D7800F03031F133F3F23236F6F737F53534F4F3
:104D88003CFCFD3DFF3F3EFEFA3A3BFB39F9F83863
:104D980028E8E929EB2B2AEAEE2E2FEF2DEDEC2C53
:104DA800E42425E527E7E62622E2E323E12120E0C3
:104DB800A06061A163A3A26266A6A767A56564A4B3
:104DC8006CACAD6DAF6F6EAEAA6A6BAB69A9A86823
:104DD80078B8B979BB7B7ABABE7E7FBF7DBDBC7C13
:104DE800B47475B577B7B67672B2B373B17170B083
:104DF8005090915193535292965657975595945473
:104E08009C5C5D9D5F9F9E5E5A9A9B5B99595898E2
:104E1800884849894B8B8A4A4E8E8F4F8D4D4C8CD2
:104E28004484854587474686824243834181804042
:104E3800D40A0008EA0A0008000B0008160B00084C
:104E48002C0B0008420B0008580B00086E0B0008DA
:104E5800FE1B0008201C00083E1C0008541C00080B
:104E6800841C000800000000000000001149000830
:104E780000000000000000002B49000800000000AE
:104E88000000000045490008000000000000000084
:104E9800E34A00080000000000000000E34A0008A0
:0C4EA8000000000000000000E34A0008C9
:084EB400E9000008794A00083A
:044EBC00C100000829
:104EC00021020008014B00080C0000200000000037
:104ED00000000000000000000000000000000000D2
:104EE00000000000000000000000000000000000C2
:104EF00000000000000000000000000000000000B2
:104F000000000000000000000000000000000000A1
:104F10000000000000000000000000000000000091
:0C4F200000000000000000000000000085
:0400000508004A9114
:00000001FF
