:020000040800F2
:100000000010002029140008791400087914000851
:1000100000000000000000000000000000000000E0
:10002000000000000000000000000000791400083B
:10003000000000000000000079140008BD02000864
:1000400079140008000000007914000879140008F1
:10005000791400087914000879140008791400084C
:100060000000000029050008490500087D0500087A
:1000700079140008791400087F05000800000000CA
:100080008105000800000000000000008305000852
:1000900000000000850500088705000879140008A5
:1000A0000000000079140008000000008905000825
:1000B0000000000000000000000000000000000040
:1000C00010B5064C2378002B07D1054B002B02D02E
:1000D000044800E000BF0123237010BD640000202D
:1000E000000000009C170008044B10B5002B03D043
:1000F0000349044800E000BF10BDC04600000000F6
:10010000680000209C17000802B4714649084900A5
:10011000095C49008E4402BC7047C0460022430877
:100120008B4274D303098B425FD3030A8B4244D3BF
:10013000030B8B4228D3030C8B420DD3FF22090201
:1001400012BA030C8B4202D31212090265D0030BC0
:100150008B4219D300E0090AC30B8B4201D3CB03B6
:10016000C01A5241830B8B4201D38B03C01A5241F8
:10017000430B8B4201D34B03C01A5241030B8B42FA
:1001800001D30B03C01A5241C30A8B4201D3CB02E5
:10019000C01A5241830A8B4201D38B02C01A5241CA
:1001A000430A8B4201D34B02C01A5241030A8B42CD
:1001B00001D30B02C01A5241CDD2C3098B4201D3E5
:1001C000CB01C01A524183098B4201D38B01C01A63
:1001D000524143098B4201D34B01C01A52410309DA
:1001E0008B4201D30B01C01A5241C3088B4201D389
:1001F000CB00C01A524183088B4201D38B00C01A36
:10020000524143088B4201D34B00C01A5241411A5C
:1002100000D20146524110467047FFE701B5002069
:1002200000F006F802BDC0460029F7D076E7704717
:100230007047C0461F2318401E3B8340014A13608D
:100240007047C04600E100E0C3690133C3617047F5
:1002500070B50500022A07D0032A14D0012A01D163
:100260000B680360002070BD28200C6801F005F9C0
:1002700002004ACC4AC24ACC4AC24ACC4AC223688B
:1002800013602860EEE72821006801F00FF9E9E724
:1002900010B50400002C05D0236820001B68984787
:1002A0006468F7E710BD10B583680400002B02D026
:1002B000032201009847200010BD0000054B10B537
:1002C0001C68002C05D0236820001B689847A46890
:1002D000F7E710BD64030020037B002B0DD0002343
:1002E000426803738368002A0ED0002B08D0936005
:1002F00083685A6000234360836070470B60F8E7AF
:10030000044993604A60F5E70249002BF6D10B607F
:100310004B60EFE764030020037B002B0CD101331B
:100320000373064B5A684260002A00D090601A6836
:100330005860002A00D118607047C046640300204E
:1003400010B580680369FC33DA69D269D2060ED52C
:100350000021FF245A6A5268596092B2A11AA14240
:1003600000D921009960FF2A01D0FFF7D5FF10BD09
:1003700003684268012090401B691840431E984161
:10038000C0B2704710B5426804680123002903D049
:1003900093400800A36110BD1032F9E710B504685E
:1003A000086880B204280CD8FFF7AEFE030C151EB7
:1003B0002C0063681A00503212885E331A8023685A
:1003C0005A8010BD63681A005232128860331A8056
:1003D00023681A71F5E7636854331B88D03B5A428F
:1003E0005341284A1370ECE7264A1378002B07D0B4
:1003F00063681900563109885C33198023681980B5
:100400000123EFE76368A06858331978C907C90F5B
:10041000FFF7B8FF6368E068583319788907C90F98
:10042000FFF7B0FF63682069583319784907C90F8F
:10043000FFF7A8FF63686069583319780907C90F87
:10044000FFF7A0FF6368A06958331978C906C90F80
:10045000FFF798FF6368E069583319788906C90F78
:10046000FFF790FF6368206A583319784906C90F6F
:10047000FFF788FF6368606A58331978C909FFF786
:1004800081FF9EE7300300201C4B10B55B68040021
:100490005B055B0F13D0042B13D0052B13D0063B49
:1004A0005A425341164A5B4213409B18072912D8FF
:1004B0000800FFF729FE0A121417191C1E21114B00
:1004C000F4E7114BF2E7114BF0E796218901180090
:1004D000FFF724FEE060200010BDE121F6E7962141
:1004E000C901F4E7E121FBE796210902EFE7E121E9
:1004F000FBE796214902EAE7E121FBE70010024011
:10050000C0C62D00006CDC0200366E01001BB70077
:100510000123C9B2890003398B4000681840431E8B
:100520009841C0B270470000054B10B51868FFF73E
:10053000AFFE0123034A51680B43536010BDC04610
:100540003403002000000240094B10B51868FFF783
:100550009FFE1023074C626813436360064B1868C4
:10056000FFF796FE802362685B001343636010BD53
:100570003C0300200000024044030020FEE7FEE7A9
:10058000FEE7FEE7FEE7FEE7044B10B51868FFF74D
:100590007FFE0122024B52421A6210BD5C03002012
:1005A00000380140F021154B5A688A435A605A6856
:1005B00013490A4003215A605A688A4311000222F3
:1005C0000A435A608022196852021143196019685F
:1005D0008903FCD559680A435A605A680949114091
:1005E000A02292030A435A608022196852040A43E7
:1005F0001A601A689201FCD57047C046001002408C
:10060000FFF8FFFFFFFFC3FFF8B50123684D694CFA
:100610002A681A426DD1684A68481168194205D1A2
:100620009021C9050160092113604160802362693E
:100630009B0213436361036861491A681140802279
:1006400012030A43F0211A605A6A8A4311001022E9
:100650000A435A6201225B4B5B491E68164205D170
:100660009026F6050E600A261A604E6080236269A5
:100670009B02134363610B68544E1A681640802234
:10068000920332431A605A6A514E16408022520039
:10069000324301265A624F4B4F4A1F68374205D1F9
:1006A0009027FF05176008271E6057608023666942
:1006B0009B02334363611768484E3B681E408023AA
:1006C0005B0233433B60464B0026FC335A61454A8C
:1006D0005E609A61444A9E60DA61444AD8601A6258
:1006E000434A19615A6206229A62043ADA62012385
:1006F0002B6080233A4EA2693500DB0113430822A8
:10070000A361FC35EB691027196804200A431A60BD
:10071000042219680A4380211A609A680A439A6081
:10072000402299680A439A601A683A431A60314B2A
:100730001856FFF77FFD0123802162692E4813437D
:1007400063612B6A2D4C1A683A431A606A689219E1
:10075000DA60EA6928329A601A680A431A601A68ED
:1007600022401A601A6802401A60022204201968A6
:100770000A431A60224B1856FFF75CFD6B6A802112
:100780001A681D48BA431A606A689219DA60EA6901
:1007900028329A60FF225A601A680A431A601A685F
:1007A00014401C601A6802401A603000F8BDC04650
:1007B0005801002000100240A0020020A4020020E6
:1007C000FFFFF3FF9402002098020020FFFFCFFFFD
:1007D000FFF0FFFF880200208C020020FFFFFCFFDB
:1007E0005C01002000000240003801401C00024073
:1007F000300002405C030020FFFCFFFFFFF3FFFF1F
:100800003C030020F7B501216B4A13680B4004D16B
:100810006A4D6B4C6B602C6011608022694BD20278
:1008200059690A4303215A61644A146822688A4359
:1008300002390A432260644C25680D4206D1902596
:10084000624AED05156007252160556080215C69CD
:10085000890221435D4A596115685D4C29680C4045
:100860008021C9012143296001255A4C5A49266833
:100870002E4205D19026F6050E60062625604E60B4
:1008800080245D69A4022C435C610E68534D34687A
:100890002540802464012C4334600126504D514C86
:1008A0002F68374205D19027FF05276005272E6066
:1008B000676080255E69AD0235435D6125684A4FFA
:1008C0002E68AC4680253E40ED00354366463560D7
:1008D0000125AC466246454E01973768444D1742A4
:1008E00004D1374F32602F6005276F6080265F6923
:1008F000F6023E4380275E612D68019A2E68FF0054
:10090000164037432F6001273A4E3B4D32683A423A
:1009100004D12B4A37602A6004226A6080265F690E
:10092000F6023E435E612E68344F35682F408025C5
:100930006D003D4301273560314E324D32683A42F9
:1009400004D11F4A37602A6003226A6080265F69EB
:10095000F6023E43C0275E612E683568BD432F0016
:1009600040253D4335600126274D2A68324206D195
:100970009022264FD2053A600F222E607A608025A1
:1009800080275E69AD0235435D61204DFF052E680D
:1009900033689B009B083B4333601A4B0560436000
:1009A000154B04618360124B4161C360074B836147
:1009B000024BC361FEBDC0464C0100205001002027
:1009C00000040048001002404001002044010020C3
:1009D000FF3FFFFF3401002038010020FFCFFFFF61
:1009E000280100202C010020FFF3FFFF1C01002044
:1009F000200100201001002014010020FFFCFFFF57
:100A00000401002008010020F8000020FC00002064
:100A1000F7B501227449754B8C461968114206D10D
:100A200090216446C905216009211A606160802215
:100A30006F4B920259696F4C0A435A6162461168C2
:100A40000A6822400A6001216B4A14680C4206D1F0
:100A500090246A4DE4052C60082411606C608022AB
:100A6000596992020A435A61644A654C11680A68DE
:100A7000224001240A60634A63491568254204D173
:100A8000624D14600D600F254D60802201255C6968
:100A9000D20222435A610C682268920092082260B6
:100AA0005B4A5C4C16682E4204D1584E1560266095
:100AB0000E26666080225D69D2022A435A6125684B
:100AC000554E2A68324001262A60544D544A2F68F8
:100AD000374204D14D4F2E6017600D275760802597
:100AE0005E69ED0235435D6115684E4E2A683240FD
:100AF00001262A604C4D4D4A2F68374204D1434F9E
:100B00002E6017600C27576080255E69ED02354323
:100B10005D611568464E2A68324001262A60454DBF
:100B2000454A2F68374204D1384F2E6017600B2793
:100B30005760802501275E69ED0235435D611668C7
:100B40003E4A3568154035603D4D01922E683D4A5C
:100B50003E4204D12D4E2F6016600A265660802535
:100B60005E69ED0235435D611568019E2A68324079
:100B700001262A60344A354D1768374204D1234F85
:100B800016602F6002276F60802230275E69D202D4
:100B900016435E612E683568BD43356001252C4ED5
:100BA000019237682F4203D12A4F184A356024C773
:100BB0000C265D69019A2A435A61264A15682B68FA
:100BC000B3432B60214B026043601E4B8461836002
:100BD000194BC161C360154B0361114B4361074B56
:100BE000036263464362FEBDF0000020EC0000207B
:100BF00000100240FFFFF3FFE0000020E4000020AF
:100C0000FFFFFCFFD4000020D800002000040048B3
:100C1000C8000020CC000020FFFFFFCFBC00002058
:100C2000C0000020FFFFFFF3B0000020B400002050
:100C3000FFFFFFFCA4000020A8000020FFFFCFFF63
:100C4000980000209C0000208C00002090000020D4
:100C50008000002084000020002310B5FC30436099
:100C60008360436906CB01231C00103294408C61E1
:100C7000C269116899431160102114682143116001
:100C8000116819431160016A0A689A430A60426A4E
:100C900011689943116011680B4313601368DB07F7
:100CA000FCD510BD10B584682369FC33D96A9869F6
:100CB000FFF72EFC002802D02069FFF7CDFF10BD02
:100CC000FF23F0B51D00064F064E0C7801315C4045
:100CD0003B5D6B40355D8A42F7D105704370F0BDD6
:100CE000B4170008B4180008020010B5FC325368AD
:100CF000946800219C4202D9591C5160C15C0800D3
:100D000010BD0300FC339A68FE2A03D881549A6808
:100D100001329A60704770B50C000500090AFFF7B0
:100D2000F0FFE1B2FFF7EDFF280070BD012310B521
:100D30001024FC30C2691168994311601168A14305
:100D40001C00116042691168526894408C61416ACC
:100D50000A689A430A60016A0A689A430A608268CC
:100D60004468016A121B023292B24A60C1690A6881
:100D70001A430A60026A11680B4313601368DB07A9
:100D8000FCD510BD0022036973B5FC335A609A602C
:100D900004000D00431D861D012921D1D97F006962
:100DA000FFF7AFFF8023F17F1943FFF7AAFF290068
:100DB000FFF7A7FF216901AD0B00FC339A685B6860
:100DC0008A182800C918FFF77BFF69782069FFF7A8
:100DD00098FF2978FFF795FF2069FFF7A7FF73BDFC
:100DE0000069D97F022D03D1FFF78BFFF17FDCE78C
:100DF000FFF787FFF17FFFF784FF0321D8E70200A9
:100E000070B5FC3253689268013304000D009A42B9
:100E10000BD9FFF769FF06002000FFF765FF3602D8
:100E2000C0B230432880200070BD00230B80FAE759
:100E3000F0B5B3B020A8FFF7E5FC279B0124019390
:100E4000269B28A80293259B16AD0393249B04930D
:100E5000239B0593229B0693219B0793209B08933A
:100E6000FFF7D6FD319B06220993309B00210A93A0
:100E70002F9B28000B932E9B0C932D9B0D932C9B4B
:100E80000E932B9B0F932A9B1093299B1193289BC6
:100E9000129300F055FB2C71FFF7B6FBD04B1A688C
:100EA00022405DD1CF4BD0491861D0485A6098613B
:100EB000581DC47718002C309A601A730831DA6113
:100EC0001A62DA841A855A851A86DA630270C84A69
:100ED0001960C849083259619A631B640B68002B7A
:100EE00003D1C54B0B6005E013005A68002AFBD103
:100EF000C14A5A600022BB4B9A64C04ADB64083284
:100F00005A64BA4A1368002B03D1BD4B136005E045
:100F100013005A68002AFBD1B94A5A60B14C0A2220
:100F200020000021503000F00BFB20000B2200219C
:100F30005A3000F005FB20000A220021663000F044
:100F4000FFFA20000A220021703000F0F9FA200098
:100F500005227A30002100F0F3FA0122A04B1A603A
:100F60000426A04B00211E621B69FC339A6AD869D3
:100F7000FFF78AFAA34A0368134003600368A24A92
:100F8000134003604368A14A134043600368A04ACA
:100F900013400360002428201A9400F06EFA16AB68
:100FA0000360019B8F4D8360029B2A69C360039B92
:100FB00045600361049BFC324361059B189083618B
:100FC000069BC361079B0362089B4362914B916838
:100FD0001B93914B1A93536A52685B688A1AFF21DC
:100FE0009BB2CB1A9A426AD22800EC61FFF774F9DF
:100FF00018A8FFF758F90998FFF7BAF90125030077
:10100000784C2B40633420780227A8431843207083
:101010000A98FFF7ADF9284043002078B8431843F9
:1010200020700B98FFF7A4F9284083002078B04384
:10103000184320700C98FFF79BF908222840C30042
:1010400020789043184320700D98FFF791F91022F3
:101050002840030120789043184320700E98FFF732
:1010600087F92022284043012078904318432070BC
:101070000F98FFF77DF940222840830120789043A4
:10108000184320701098FFF773F97F22C30120786E
:101090001040184320701198FFF76AF90300607838
:1010A0002B40A843184360701298FFF761F928405D
:1010B000A8406578BD430543657030BF6AE7EB69BA
:1010C0002A6A934294DB2800EC61FFF705F928694E
:1010D0000200FC32936851685F1A072F02D8FFF7AD
:1010E000BBFD85E70535475CED7FAF42F7D18B420D
:1010F00002D9013B9360C45C0200FC329368002774
:10110000994202D2013B9360C75C0300FC339A68AA
:101110001CAD821841182800FFF7D2FD2B78A3429E
:1011200045D1304C6B782069BB4240D1FFF7DCFDE4
:101130002069FFF7D9FDA31D0700D877032871D1D7
:10114000250036492069FFF75AFE35492069FFF727
:1011500056FE628DE38C2C35D318013B9BB25200B6
:1011600023852A700221042B00D913E12069002273
:101170000300FC335A609A600534E17FFFF7C1FD3C
:101180003900FFF7BEFD2978FFF7BBFD154C638DD5
:1011900020695A1E6285002B0CD0E38C5A1C2C331C
:1011A0005B00E284E4186188FFF7B5FDEEE70D4BC4
:1011B000186994E70300FC339A6859681CAD8218DB
:1011C00041182800FFF77CFD69782069FFF799FD39
:1011D0002978FFF796FD2069FFF7A8FD08E7C046CC
:1011E000AC020020B0020020B41900083C0300202B
:1011F000CC1900085C030020E8020020C019000898
:10120000F4020020FFFDFFFFFFEFFFFFFFCFFFFF16
:10121000FFFBFFFF9D03000851020008D6020020DB
:10122000DA0200200121102800D0B3E00023AB60D7
:101230001A9B002B08D0022218A9280098471B9B54
:101240001393EB601A9BAB60544C55492069FFF730
:10125000D6FD54492069FFF7D2FD2100628DE38C51
:101260002C31D318013B9BB2520023850A70042B0A
:1012700004D902212000FFF785FD87E020690200E4
:10128000FC32536894689C422CD95C1C5460C35C4B
:1012900000250B70414C638DAB4239D9424920691E
:1012A000FFF7ADFDE38C5B191900E2187A32107874
:1012B0003031E28D002817D049006418E18817B258
:1012C00008B2874201DA002909D1180033493830C1
:1012D0004000405A04B2A74214DD002812D0032176
:1012E0002E48C8E70023D3E749006418E1888A4202
:1012F00001D20029F3D11800284938304000405A63
:101300008242EAD828335B000135CA52ADB2C1E748
:101310000025224C638DAB420ED9E38C5B191593EB
:101320001E9B002B01D100F0C5F81F9B15A91CA81E
:1013300001359847ADB2ECE7002223692069FC3300
:101340005A609A60631DD97FFFF7DBFCA31DD97F2C
:10135000FFF7D7FCE18CFFF7DEFC618DFFF7DBFCCC
:10136000216914A80B00FC339A685B688A18C918B5
:10137000FFF7A6FC14AB59782069FFF7C2FC14AB49
:101380001978FFF7BEFC2069FFF7D0FC1CA8FEF718
:101390008AFF2DE62000FFF7F5FC29E6B0020020C9
:1013A000D6020020DA020020DE0200200023154AC7
:1013B000154913605360154A516004219360106809
:1013C000014311600221106801431160012110687E
:1013D000014311601B210E4A117113600D4A12392D
:1013E000117113600C4A0131117113600B4A1171B4
:1013F00013600B4A0131136011710A4A13601171B5
:101400007047C046640300207FBB000010E000E08E
:101410005C030020340300203C0300204403002030
:101420004C030020540300200D4885460D480E490A
:101430000E4A002302E0D458C4500433C4188C422E
:10144000F9D30B4A0B4C002301E013600432A24293
:10145000FBD3FFF7A7F800F03BF8FFF7E9FCFEE746
:10146000001000200000002064000020E4190008A3
:101470006400002080030020FEE710B5041E00D1A8
:101480000134200000F048F8002807D100F008F8E7
:10149000002801D100F015F88047F2E710BD0000E8
:1014A000014B18687047C0466C03002010B500F06F
:1014B00004F810BD10B500F004F810B500F036F8CF
:1014C00010BD10B5062000F027F9012000F064F9E6
:1014D00070B500260C4D0D4C641BA410A64209D11A
:1014E000002600F05BF90A4D0A4C641BA410A642CA
:1014F00005D170BDB300EB5898470136EEE7B30055
:10150000EB5898470136F2E7D8190008D8190008B7
:10151000D8190008E019000810B5034B010018683D
:1015200000F060F810BDC0460000002010B5034B6D
:101530000100186800F00CF810BDC0460000002043
:1015400003001218934200D1704719700133F9E774
:1015500070B50500002910D00C1F2368002B00DA9D
:10156000E418280000F0F8F81D4A1368002B05D194
:1015700063601460280000F0F0F870BDA34209D940
:10158000216860188342F3D118685B6841182160B4
:10159000EEE713005A68002A01D0A242F9D919686F
:1015A0005818A0420BD120680918581819608242B7
:1015B000E0D110685268411819605A60DAE7A04219
:1015C00002D90C232B60D5E721686018824203D131
:1015D000106852684118216062605C60CAE7C046CA
:1015E00070030020032370B5CD1C9D430835060011
:1015F0000C2D1ED20C25A9421DD8300000F0ACF8ED
:10160000254A14682100002919D1244C2368002B95
:1016100003D1300000F044F820602900300000F0D1
:101620003FF8431C2BD10C233000336000F095F8B9
:1016300003E0002DDFDA0C233360002070BD0B685F
:101640005B1B19D40B2B03D90B60CC18256003E06E
:101650004B688C420DD11360300000F07EF8200002
:1016600007220B30231D9043C31AE7D05A42E250A1
:10167000E4E763600C00EFE70C004968C3E703236D
:10168000C41C9C43A042E1D0211A300000F008F8AD
:10169000431CDBD1C7E7C046700300207403002061
:1016A000002370B5064C05000800236000F066F8C2
:1016B000431C03D12368002B00D02B6070BDC046B3
:1016C0007C03002070B504000D001F2904D91623E7
:1016D00003600120404270BD436C002B04D08A009F
:1016E0009B181A68002A08D1200000F031F82A005F
:1016F0000100200000F01AF8EDE70020012AEAD0EE
:10170000511C03D1162301302360E4E70024280094
:101710001C6090472000DEE710B5034B01001868FD
:10172000FFF7D0FF10BDC04600000020002370B5B9
:10173000064C050008001100236000F017F8431C58
:1017400003D12368002B00D02B6070BD7C030020E8
:1017500010B500F003F810BD704770475822012003
:10176000014B40421A6070477C0300205822012040
:10177000014B40421A6070477C030020044A136802
:10178000002B00D1034B1818106018007047C0469A
:101790007803002080030020FEE7C046F8B5C0466D
:1017A000F8BC08BC9E467047F8B5C046F8BC08BCFB
:0417B0009E4670479A
:1017B40000C1814001C0804101C0804100C181401D
:1017C40001C0804100C1814000C1814001C080410D
:1017D40001C0804100C1814000C1814001C08041FD
:1017E40000C1814001C0804101C0804100C18140ED
:1017F40001C0804100C1814000C1814001C08041DD
:1018040000C1814001C0804101C0804100C18140CC
:1018140000C1814001C0804101C0804100C18140BC
:1018240001C0804100C1814000C1814001C08041AC
:1018340001C0804100C1814000C1814001C080419C
:1018440000C1814001C0804101C0804100C181408C
:1018540000C1814001C0804101C0804100C181407C
:1018640001C0804100C1814000C1814001C080416C
:1018740000C1814001C0804101C0804100C181405C
:1018840001C0804100C1814000C1814001C080414C
:1018940001C0804100C1814000C1814001C080413C
:1018A40000C1814001C0804101C0804100C181402C
:1018B40000C0C101C30302C2C60607C705C5C404EC
:1018C400CC0C0DCD0FCFCE0E0ACACB0BC90908C85C
:1018D400D81819D91BDBDA1A1EDEDF1FDD1D1CDC4C
:1018E40014D4D515D71716D6D21213D311D1D010BC
:1018F400F03031F133F3F23236F6F737F53534F4AC
:101904003CFCFD3DFF3F3EFEFA3A3BFB39F9F8381B
:1019140028E8E929EB2B2AEAEE2E2FEF2DEDEC2C0B
:10192400E42425E527E7E62622E2E323E12120E07B
:10193400A06061A163A3A26266A6A767A56564A46B
:101944006CACAD6DAF6F6EAEAA6A6BAB69A9A868DB
:1019540078B8B979BB7B7ABABE7E7FBF7DBDBC7CCB
:10196400B47475B577B7B67672B2B373B17170B03B
:10197400509091519353529296565797559594542B
:101984009C5C5D9D5F9F9E5E5A9A9B5B995958989B
:10199400884849894B8B8A4A4E8E8F4F8D4D4C8C8B
:1019A40044848545874746868242438341818040FB
:1019B40000000000000000004902000800000000D0
:1019C40000000000A50C000800000000000000005A
:0419D40041030008C3
:0819D800E9000008AD1300084E
:0419E000C10000083A
:1019E40004000020000000000000000000000000CF
:1019F40000000000000000000000000000000000E3
:101A040000000000000000000000000000000000D2
:101A140000000000000000000000000000000000C2
:101A240000000000000000000000000000000000B2
:101A340000000000000000000000000000000000A2
:041A4400000000009E
:0400000508001429B2
:00000001FF
